{
  "contractName": "Land",
  "abi": [
    {
      "inputs": [],
      "stateMutability": "nonpayable",
      "type": "constructor"
    },
    {
      "anonymous": false,
      "inputs": [
        {
          "indexed": true,
          "internalType": "uint256",
          "name": "_landId",
          "type": "uint256"
        }
      ],
      "name": "AddingLand",
      "type": "event"
    },
    {
      "anonymous": false,
      "inputs": [
        {
          "indexed": false,
          "internalType": "address",
          "name": "_sellerId",
          "type": "address"
        }
      ],
      "name": "Landrequested",
      "type": "event"
    },
    {
      "anonymous": false,
      "inputs": [
        {
          "indexed": false,
          "internalType": "address",
          "name": "_registrationId",
          "type": "address"
        }
      ],
      "name": "Registration",
      "type": "event"
    },
    {
      "anonymous": false,
      "inputs": [
        {
          "indexed": false,
          "internalType": "address",
          "name": "_id",
          "type": "address"
        }
      ],
      "name": "Rejected",
      "type": "event"
    },
    {
      "anonymous": false,
      "inputs": [
        {
          "indexed": false,
          "internalType": "address",
          "name": "_id",
          "type": "address"
        }
      ],
      "name": "Verified",
      "type": "event"
    },
    {
      "anonymous": false,
      "inputs": [
        {
          "indexed": false,
          "internalType": "address",
          "name": "_buyerId",
          "type": "address"
        }
      ],
      "name": "requestApproved",
      "type": "event"
    },
    {
      "inputs": [
        {
          "internalType": "address",
          "name": "",
          "type": "address"
        }
      ],
      "name": "BuyerMapping",
      "outputs": [
        {
          "internalType": "address",
          "name": "id",
          "type": "address"
        },
        {
          "internalType": "string",
          "name": "name",
          "type": "string"
        },
        {
          "internalType": "uint256",
          "name": "age",
          "type": "uint256"
        },
        {
          "internalType": "string",
          "name": "city",
          "type": "string"
        },
        {
          "internalType": "string",
          "name": "aadharNumber",
          "type": "string"
        },
        {
          "internalType": "string",
          "name": "panNumber",
          "type": "string"
        },
        {
          "internalType": "string",
          "name": "document",
          "type": "string"
        },
        {
          "internalType": "string",
          "name": "email",
          "type": "string"
        }
      ],
      "stateMutability": "view",
      "type": "function",
      "constant": true
    },
    {
      "inputs": [
        {
          "internalType": "address",
          "name": "",
          "type": "address"
        }
      ],
      "name": "BuyerRejection",
      "outputs": [
        {
          "internalType": "bool",
          "name": "",
          "type": "bool"
        }
      ],
      "stateMutability": "view",
      "type": "function",
      "constant": true
    },
    {
      "inputs": [
        {
          "internalType": "address",
          "name": "",
          "type": "address"
        }
      ],
      "name": "BuyerVerification",
      "outputs": [
        {
          "internalType": "bool",
          "name": "",
          "type": "bool"
        }
      ],
      "stateMutability": "view",
      "type": "function",
      "constant": true
    },
    {
      "inputs": [
        {
          "internalType": "uint256",
          "name": "",
          "type": "uint256"
        }
      ],
      "name": "InspectorMapping",
      "outputs": [
        {
          "internalType": "uint256",
          "name": "id",
          "type": "uint256"
        },
        {
          "internalType": "string",
          "name": "name",
          "type": "string"
        },
        {
          "internalType": "uint256",
          "name": "age",
          "type": "uint256"
        },
        {
          "internalType": "string",
          "name": "designation",
          "type": "string"
        }
      ],
      "stateMutability": "view",
      "type": "function",
      "constant": true
    },
    {
      "inputs": [
        {
          "internalType": "uint256",
          "name": "",
          "type": "uint256"
        }
      ],
      "name": "LandOwner",
      "outputs": [
        {
          "internalType": "address",
          "name": "",
          "type": "address"
        }
      ],
      "stateMutability": "view",
      "type": "function",
      "constant": true
    },
    {
      "inputs": [
        {
          "internalType": "uint256",
          "name": "",
          "type": "uint256"
        }
      ],
      "name": "LandVerification",
      "outputs": [
        {
          "internalType": "bool",
          "name": "",
          "type": "bool"
        }
      ],
      "stateMutability": "view",
      "type": "function",
      "constant": true
    },
    {
      "inputs": [],
      "name": "Land_Inspector",
      "outputs": [
        {
          "internalType": "address",
          "name": "",
          "type": "address"
        }
      ],
      "stateMutability": "view",
      "type": "function",
      "constant": true
    },
    {
      "inputs": [
        {
          "internalType": "uint256",
          "name": "",
          "type": "uint256"
        }
      ],
      "name": "PaymentReceived",
      "outputs": [
        {
          "internalType": "bool",
          "name": "",
          "type": "bool"
        }
      ],
      "stateMutability": "view",
      "type": "function",
      "constant": true
    },
    {
      "inputs": [
        {
          "internalType": "address",
          "name": "",
          "type": "address"
        }
      ],
      "name": "RegisteredBuyerMapping",
      "outputs": [
        {
          "internalType": "bool",
          "name": "",
          "type": "bool"
        }
      ],
      "stateMutability": "view",
      "type": "function",
      "constant": true
    },
    {
      "inputs": [
        {
          "internalType": "address",
          "name": "",
          "type": "address"
        }
      ],
      "name": "RegisteredSellerMapping",
      "outputs": [
        {
          "internalType": "bool",
          "name": "",
          "type": "bool"
        }
      ],
      "stateMutability": "view",
      "type": "function",
      "constant": true
    },
    {
      "inputs": [
        {
          "internalType": "uint256",
          "name": "",
          "type": "uint256"
        }
      ],
      "name": "RequestStatus",
      "outputs": [
        {
          "internalType": "bool",
          "name": "",
          "type": "bool"
        }
      ],
      "stateMutability": "view",
      "type": "function",
      "constant": true
    },
    {
      "inputs": [
        {
          "internalType": "uint256",
          "name": "",
          "type": "uint256"
        }
      ],
      "name": "RequestedLands",
      "outputs": [
        {
          "internalType": "bool",
          "name": "",
          "type": "bool"
        }
      ],
      "stateMutability": "view",
      "type": "function",
      "constant": true
    },
    {
      "inputs": [
        {
          "internalType": "uint256",
          "name": "",
          "type": "uint256"
        }
      ],
      "name": "RequestsMapping",
      "outputs": [
        {
          "internalType": "uint256",
          "name": "reqId",
          "type": "uint256"
        },
        {
          "internalType": "address",
          "name": "sellerId",
          "type": "address"
        },
        {
          "internalType": "address",
          "name": "buyerId",
          "type": "address"
        },
        {
          "internalType": "uint256",
          "name": "landId",
          "type": "uint256"
        }
      ],
      "stateMutability": "view",
      "type": "function",
      "constant": true
    },
    {
      "inputs": [
        {
          "internalType": "address",
          "name": "",
          "type": "address"
        }
      ],
      "name": "SellerMapping",
      "outputs": [
        {
          "internalType": "address",
          "name": "id",
          "type": "address"
        },
        {
          "internalType": "string",
          "name": "name",
          "type": "string"
        },
        {
          "internalType": "uint256",
          "name": "age",
          "type": "uint256"
        },
        {
          "internalType": "string",
          "name": "aadharNumber",
          "type": "string"
        },
        {
          "internalType": "string",
          "name": "panNumber",
          "type": "string"
        },
        {
          "internalType": "string",
          "name": "landsOwned",
          "type": "string"
        },
        {
          "internalType": "string",
          "name": "document",
          "type": "string"
        }
      ],
      "stateMutability": "view",
      "type": "function",
      "constant": true
    },
    {
      "inputs": [
        {
          "internalType": "address",
          "name": "",
          "type": "address"
        }
      ],
      "name": "SellerRejection",
      "outputs": [
        {
          "internalType": "bool",
          "name": "",
          "type": "bool"
        }
      ],
      "stateMutability": "view",
      "type": "function",
      "constant": true
    },
    {
      "inputs": [
        {
          "internalType": "address",
          "name": "",
          "type": "address"
        }
      ],
      "name": "SellerVerification",
      "outputs": [
        {
          "internalType": "bool",
          "name": "",
          "type": "bool"
        }
      ],
      "stateMutability": "view",
      "type": "function",
      "constant": true
    },
    {
      "inputs": [
        {
          "internalType": "uint256",
          "name": "",
          "type": "uint256"
        }
      ],
      "name": "buyers",
      "outputs": [
        {
          "internalType": "address",
          "name": "",
          "type": "address"
        }
      ],
      "stateMutability": "view",
      "type": "function",
      "constant": true
    },
    {
      "inputs": [],
      "name": "buyersCount",
      "outputs": [
        {
          "internalType": "uint256",
          "name": "",
          "type": "uint256"
        }
      ],
      "stateMutability": "view",
      "type": "function",
      "constant": true
    },
    {
      "inputs": [],
      "name": "inspectorsCount",
      "outputs": [
        {
          "internalType": "uint256",
          "name": "",
          "type": "uint256"
        }
      ],
      "stateMutability": "view",
      "type": "function",
      "constant": true
    },
    {
      "inputs": [
        {
          "internalType": "uint256",
          "name": "",
          "type": "uint256"
        }
      ],
      "name": "lands",
      "outputs": [
        {
          "internalType": "uint256",
          "name": "id",
          "type": "uint256"
        },
        {
          "internalType": "uint256",
          "name": "area",
          "type": "uint256"
        },
        {
          "internalType": "string",
          "name": "city",
          "type": "string"
        },
        {
          "internalType": "string",
          "name": "state",
          "type": "string"
        },
        {
          "internalType": "uint256",
          "name": "landPrice",
          "type": "uint256"
        },
        {
          "internalType": "uint256",
          "name": "propertyPID",
          "type": "uint256"
        },
        {
          "internalType": "uint256",
          "name": "physicalSurveyNumber",
          "type": "uint256"
        },
        {
          "internalType": "string",
          "name": "ipfsHash",
          "type": "string"
        },
        {
          "internalType": "string",
          "name": "document",
          "type": "string"
        }
      ],
      "stateMutability": "view",
      "type": "function",
      "constant": true
    },
    {
      "inputs": [],
      "name": "landsCount",
      "outputs": [
        {
          "internalType": "uint256",
          "name": "",
          "type": "uint256"
        }
      ],
      "stateMutability": "view",
      "type": "function",
      "constant": true
    },
    {
      "inputs": [],
      "name": "requestsCount",
      "outputs": [
        {
          "internalType": "uint256",
          "name": "",
          "type": "uint256"
        }
      ],
      "stateMutability": "view",
      "type": "function",
      "constant": true
    },
    {
      "inputs": [
        {
          "internalType": "uint256",
          "name": "",
          "type": "uint256"
        }
      ],
      "name": "sellers",
      "outputs": [
        {
          "internalType": "address",
          "name": "",
          "type": "address"
        }
      ],
      "stateMutability": "view",
      "type": "function",
      "constant": true
    },
    {
      "inputs": [],
      "name": "sellersCount",
      "outputs": [
        {
          "internalType": "uint256",
          "name": "",
          "type": "uint256"
        }
      ],
      "stateMutability": "view",
      "type": "function",
      "constant": true
    },
    {
      "inputs": [],
      "name": "getLandsCount",
      "outputs": [
        {
          "internalType": "uint256",
          "name": "",
          "type": "uint256"
        }
      ],
      "stateMutability": "view",
      "type": "function",
      "constant": true
    },
    {
      "inputs": [],
      "name": "getBuyersCount",
      "outputs": [
        {
          "internalType": "uint256",
          "name": "",
          "type": "uint256"
        }
      ],
      "stateMutability": "view",
      "type": "function",
      "constant": true
    },
    {
      "inputs": [],
      "name": "getSellersCount",
      "outputs": [
        {
          "internalType": "uint256",
          "name": "",
          "type": "uint256"
        }
      ],
      "stateMutability": "view",
      "type": "function",
      "constant": true
    },
    {
      "inputs": [],
      "name": "getRequestsCount",
      "outputs": [
        {
          "internalType": "uint256",
          "name": "",
          "type": "uint256"
        }
      ],
      "stateMutability": "view",
      "type": "function",
      "constant": true
    },
    {
      "inputs": [
        {
          "internalType": "uint256",
          "name": "i",
          "type": "uint256"
        }
      ],
      "name": "getArea",
      "outputs": [
        {
          "internalType": "uint256",
          "name": "",
          "type": "uint256"
        }
      ],
      "stateMutability": "view",
      "type": "function",
      "constant": true
    },
    {
      "inputs": [
        {
          "internalType": "uint256",
          "name": "i",
          "type": "uint256"
        }
      ],
      "name": "getCity",
      "outputs": [
        {
          "internalType": "string",
          "name": "",
          "type": "string"
        }
      ],
      "stateMutability": "view",
      "type": "function",
      "constant": true
    },
    {
      "inputs": [
        {
          "internalType": "uint256",
          "name": "i",
          "type": "uint256"
        }
      ],
      "name": "getState",
      "outputs": [
        {
          "internalType": "string",
          "name": "",
          "type": "string"
        }
      ],
      "stateMutability": "view",
      "type": "function",
      "constant": true
    },
    {
      "inputs": [
        {
          "internalType": "uint256",
          "name": "i",
          "type": "uint256"
        }
      ],
      "name": "getPrice",
      "outputs": [
        {
          "internalType": "uint256",
          "name": "",
          "type": "uint256"
        }
      ],
      "stateMutability": "view",
      "type": "function",
      "constant": true
    },
    {
      "inputs": [
        {
          "internalType": "uint256",
          "name": "i",
          "type": "uint256"
        }
      ],
      "name": "getPID",
      "outputs": [
        {
          "internalType": "uint256",
          "name": "",
          "type": "uint256"
        }
      ],
      "stateMutability": "view",
      "type": "function",
      "constant": true
    },
    {
      "inputs": [
        {
          "internalType": "uint256",
          "name": "i",
          "type": "uint256"
        }
      ],
      "name": "getSurveyNumber",
      "outputs": [
        {
          "internalType": "uint256",
          "name": "",
          "type": "uint256"
        }
      ],
      "stateMutability": "view",
      "type": "function",
      "constant": true
    },
    {
      "inputs": [
        {
          "internalType": "uint256",
          "name": "i",
          "type": "uint256"
        }
      ],
      "name": "getImage",
      "outputs": [
        {
          "internalType": "string",
          "name": "",
          "type": "string"
        }
      ],
      "stateMutability": "view",
      "type": "function",
      "constant": true
    },
    {
      "inputs": [
        {
          "internalType": "uint256",
          "name": "i",
          "type": "uint256"
        }
      ],
      "name": "getDocument",
      "outputs": [
        {
          "internalType": "string",
          "name": "",
          "type": "string"
        }
      ],
      "stateMutability": "view",
      "type": "function",
      "constant": true
    },
    {
      "inputs": [
        {
          "internalType": "uint256",
          "name": "id",
          "type": "uint256"
        }
      ],
      "name": "getLandOwner",
      "outputs": [
        {
          "internalType": "address",
          "name": "",
          "type": "address"
        }
      ],
      "stateMutability": "view",
      "type": "function",
      "constant": true
    },
    {
      "inputs": [
        {
          "internalType": "address",
          "name": "_sellerId",
          "type": "address"
        }
      ],
      "name": "verifySeller",
      "outputs": [],
      "stateMutability": "nonpayable",
      "type": "function"
    },
    {
      "inputs": [
        {
          "internalType": "address",
          "name": "_sellerId",
          "type": "address"
        }
      ],
      "name": "rejectSeller",
      "outputs": [],
      "stateMutability": "nonpayable",
      "type": "function"
    },
    {
      "inputs": [
        {
          "internalType": "address",
          "name": "_buyerId",
          "type": "address"
        }
      ],
      "name": "verifyBuyer",
      "outputs": [],
      "stateMutability": "nonpayable",
      "type": "function"
    },
    {
      "inputs": [
        {
          "internalType": "address",
          "name": "_buyerId",
          "type": "address"
        }
      ],
      "name": "rejectBuyer",
      "outputs": [],
      "stateMutability": "nonpayable",
      "type": "function"
    },
    {
      "inputs": [
        {
          "internalType": "uint256",
          "name": "_landId",
          "type": "uint256"
        }
      ],
      "name": "verifyLand",
      "outputs": [],
      "stateMutability": "nonpayable",
      "type": "function"
    },
    {
      "inputs": [
        {
          "internalType": "uint256",
          "name": "_id",
          "type": "uint256"
        }
      ],
      "name": "isLandVerified",
      "outputs": [
        {
          "internalType": "bool",
          "name": "",
          "type": "bool"
        }
      ],
      "stateMutability": "view",
      "type": "function",
      "constant": true
    },
    {
      "inputs": [
        {
          "internalType": "address",
          "name": "_id",
          "type": "address"
        }
      ],
      "name": "isVerified",
      "outputs": [
        {
          "internalType": "bool",
          "name": "",
          "type": "bool"
        }
      ],
      "stateMutability": "view",
      "type": "function",
      "constant": true
    },
    {
      "inputs": [
        {
          "internalType": "address",
          "name": "_id",
          "type": "address"
        }
      ],
      "name": "isRejected",
      "outputs": [
        {
          "internalType": "bool",
          "name": "",
          "type": "bool"
        }
      ],
      "stateMutability": "view",
      "type": "function",
      "constant": true
    },
    {
      "inputs": [
        {
          "internalType": "address",
          "name": "_id",
          "type": "address"
        }
      ],
      "name": "isSeller",
      "outputs": [
        {
          "internalType": "bool",
          "name": "",
          "type": "bool"
        }
      ],
      "stateMutability": "view",
      "type": "function",
      "constant": true
    },
    {
      "inputs": [
        {
          "internalType": "address",
          "name": "_id",
          "type": "address"
        }
      ],
      "name": "isLandInspector",
      "outputs": [
        {
          "internalType": "bool",
          "name": "",
          "type": "bool"
        }
      ],
      "stateMutability": "view",
      "type": "function",
      "constant": true
    },
    {
      "inputs": [
        {
          "internalType": "address",
          "name": "_id",
          "type": "address"
        }
      ],
      "name": "isBuyer",
      "outputs": [
        {
          "internalType": "bool",
          "name": "",
          "type": "bool"
        }
      ],
      "stateMutability": "view",
      "type": "function",
      "constant": true
    },
    {
      "inputs": [
        {
          "internalType": "address",
          "name": "_id",
          "type": "address"
        }
      ],
      "name": "isRegistered",
      "outputs": [
        {
          "internalType": "bool",
          "name": "",
          "type": "bool"
        }
      ],
      "stateMutability": "view",
      "type": "function",
      "constant": true
    },
    {
      "inputs": [
        {
          "internalType": "uint256",
          "name": "_area",
          "type": "uint256"
        },
        {
          "internalType": "string",
          "name": "_city",
          "type": "string"
        },
        {
          "internalType": "string",
          "name": "_state",
          "type": "string"
        },
        {
          "internalType": "uint256",
          "name": "landPrice",
          "type": "uint256"
        },
        {
          "internalType": "uint256",
          "name": "_propertyPID",
          "type": "uint256"
        },
        {
          "internalType": "uint256",
          "name": "_surveyNum",
          "type": "uint256"
        },
        {
          "internalType": "string",
          "name": "_ipfsHash",
          "type": "string"
        },
        {
          "internalType": "string",
          "name": "_document",
          "type": "string"
        }
      ],
      "name": "addLand",
      "outputs": [],
      "stateMutability": "nonpayable",
      "type": "function"
    },
    {
      "inputs": [
        {
          "internalType": "string",
          "name": "_name",
          "type": "string"
        },
        {
          "internalType": "uint256",
          "name": "_age",
          "type": "uint256"
        },
        {
          "internalType": "string",
          "name": "_aadharNumber",
          "type": "string"
        },
        {
          "internalType": "string",
          "name": "_panNumber",
          "type": "string"
        },
        {
          "internalType": "string",
          "name": "_landsOwned",
          "type": "string"
        },
        {
          "internalType": "string",
          "name": "_document",
          "type": "string"
        }
      ],
      "name": "registerSeller",
      "outputs": [],
      "stateMutability": "nonpayable",
      "type": "function"
    },
    {
      "inputs": [
        {
          "internalType": "string",
          "name": "_name",
          "type": "string"
        },
        {
          "internalType": "uint256",
          "name": "_age",
          "type": "uint256"
        },
        {
          "internalType": "string",
          "name": "_aadharNumber",
          "type": "string"
        },
        {
          "internalType": "string",
          "name": "_panNumber",
          "type": "string"
        },
        {
          "internalType": "string",
          "name": "_landsOwned",
          "type": "string"
        }
      ],
      "name": "updateSeller",
      "outputs": [],
      "stateMutability": "nonpayable",
      "type": "function"
    },
    {
      "inputs": [],
      "name": "getSeller",
      "outputs": [
        {
          "internalType": "address[]",
          "name": "",
          "type": "address[]"
        }
      ],
      "stateMutability": "view",
      "type": "function",
      "constant": true
    },
    {
      "inputs": [
        {
          "internalType": "address",
          "name": "i",
          "type": "address"
        }
      ],
      "name": "getSellerDetails",
      "outputs": [
        {
          "internalType": "string",
          "name": "",
          "type": "string"
        },
        {
          "internalType": "uint256",
          "name": "",
          "type": "uint256"
        },
        {
          "internalType": "string",
          "name": "",
          "type": "string"
        },
        {
          "internalType": "string",
          "name": "",
          "type": "string"
        },
        {
          "internalType": "string",
          "name": "",
          "type": "string"
        },
        {
          "internalType": "string",
          "name": "",
          "type": "string"
        }
      ],
      "stateMutability": "view",
      "type": "function",
      "constant": true
    },
    {
      "inputs": [
        {
          "internalType": "string",
          "name": "_name",
          "type": "string"
        },
        {
          "internalType": "uint256",
          "name": "_age",
          "type": "uint256"
        },
        {
          "internalType": "string",
          "name": "_city",
          "type": "string"
        },
        {
          "internalType": "string",
          "name": "_aadharNumber",
          "type": "string"
        },
        {
          "internalType": "string",
          "name": "_panNumber",
          "type": "string"
        },
        {
          "internalType": "string",
          "name": "_document",
          "type": "string"
        },
        {
          "internalType": "string",
          "name": "_email",
          "type": "string"
        }
      ],
      "name": "registerBuyer",
      "outputs": [],
      "stateMutability": "nonpayable",
      "type": "function"
    },
    {
      "inputs": [
        {
          "internalType": "string",
          "name": "_name",
          "type": "string"
        },
        {
          "internalType": "uint256",
          "name": "_age",
          "type": "uint256"
        },
        {
          "internalType": "string",
          "name": "_city",
          "type": "string"
        },
        {
          "internalType": "string",
          "name": "_aadharNumber",
          "type": "string"
        },
        {
          "internalType": "string",
          "name": "_email",
          "type": "string"
        },
        {
          "internalType": "string",
          "name": "_panNumber",
          "type": "string"
        }
      ],
      "name": "updateBuyer",
      "outputs": [],
      "stateMutability": "nonpayable",
      "type": "function"
    },
    {
      "inputs": [],
      "name": "getBuyer",
      "outputs": [
        {
          "internalType": "address[]",
          "name": "",
          "type": "address[]"
        }
      ],
      "stateMutability": "view",
      "type": "function",
      "constant": true
    },
    {
      "inputs": [
        {
          "internalType": "address",
          "name": "i",
          "type": "address"
        }
      ],
      "name": "getBuyerDetails",
      "outputs": [
        {
          "internalType": "string",
          "name": "",
          "type": "string"
        },
        {
          "internalType": "string",
          "name": "",
          "type": "string"
        },
        {
          "internalType": "string",
          "name": "",
          "type": "string"
        },
        {
          "internalType": "string",
          "name": "",
          "type": "string"
        },
        {
          "internalType": "string",
          "name": "",
          "type": "string"
        },
        {
          "internalType": "uint256",
          "name": "",
          "type": "uint256"
        },
        {
          "internalType": "string",
          "name": "",
          "type": "string"
        }
      ],
      "stateMutability": "view",
      "type": "function",
      "constant": true
    },
    {
      "inputs": [
        {
          "internalType": "address",
          "name": "_sellerId",
          "type": "address"
        },
        {
          "internalType": "uint256",
          "name": "_landId",
          "type": "uint256"
        }
      ],
      "name": "requestLand",
      "outputs": [],
      "stateMutability": "nonpayable",
      "type": "function"
    },
    {
      "inputs": [
        {
          "internalType": "uint256",
          "name": "i",
          "type": "uint256"
        }
      ],
      "name": "getRequestDetails",
      "outputs": [
        {
          "internalType": "address",
          "name": "",
          "type": "address"
        },
        {
          "internalType": "address",
          "name": "",
          "type": "address"
        },
        {
          "internalType": "uint256",
          "name": "",
          "type": "uint256"
        },
        {
          "internalType": "bool",
          "name": "",
          "type": "bool"
        }
      ],
      "stateMutability": "view",
      "type": "function",
      "constant": true
    },
    {
      "inputs": [
        {
          "internalType": "uint256",
          "name": "_id",
          "type": "uint256"
        }
      ],
      "name": "isRequested",
      "outputs": [
        {
          "internalType": "bool",
          "name": "",
          "type": "bool"
        }
      ],
      "stateMutability": "view",
      "type": "function",
      "constant": true
    },
    {
      "inputs": [
        {
          "internalType": "uint256",
          "name": "_id",
          "type": "uint256"
        }
      ],
      "name": "isApproved",
      "outputs": [
        {
          "internalType": "bool",
          "name": "",
          "type": "bool"
        }
      ],
      "stateMutability": "view",
      "type": "function",
      "constant": true
    },
    {
      "inputs": [
        {
          "internalType": "uint256",
          "name": "_reqId",
          "type": "uint256"
        }
      ],
      "name": "approveRequest",
      "outputs": [],
      "stateMutability": "nonpayable",
      "type": "function"
    },
    {
      "inputs": [
        {
          "internalType": "uint256",
          "name": "_landId",
          "type": "uint256"
        },
        {
          "internalType": "address",
          "name": "_newOwner",
          "type": "address"
        }
      ],
      "name": "LandOwnershipTransfer",
      "outputs": [],
      "stateMutability": "nonpayable",
      "type": "function"
    },
    {
      "inputs": [
        {
          "internalType": "uint256",
          "name": "_landId",
          "type": "uint256"
        }
      ],
      "name": "isPaid",
      "outputs": [
        {
          "internalType": "bool",
          "name": "",
          "type": "bool"
        }
      ],
      "stateMutability": "view",
      "type": "function",
      "constant": true
    },
    {
      "inputs": [
        {
          "internalType": "address payable",
          "name": "_receiver",
          "type": "address"
        },
        {
          "internalType": "uint256",
          "name": "_landId",
          "type": "uint256"
        }
      ],
      "name": "payment",
      "outputs": [],
      "stateMutability": "payable",
      "type": "function",
      "payable": true
    }
  ],
  "bytecode": "0x60806040523480156200001157600080fd5b50601080546001600160a01b031916737d476fe99d0a981714541cd63b762af7dbb10de7179055604080518082018252600b81526a496e73706563746f72203160a81b6020808301919091528251808401909352600e83526d2a32b439b4b61026b0b730b3b2b960911b908301526200008d91602d9062000093565b620002b5565b60148054906000620000a58362000120565b90915550506040805160808101825260145480825260208083018781528385018790526060840186905260009283526001918290529390912082518155925191929190820190620000f79082620001e9565b506040820151600282015560608201516003820190620001189082620001e9565b505050505050565b6000600182016200014157634e487b7160e01b600052601160045260246000fd5b5060010190565b634e487b7160e01b600052604160045260246000fd5b600181811c908216806200017357607f821691505b6020821081036200019457634e487b7160e01b600052602260045260246000fd5b50919050565b601f821115620001e457600081815260208120601f850160051c81016020861015620001c35750805b601f850160051c820191505b818110156200011857828155600101620001cf565b505050565b81516001600160401b0381111562000205576200020562000148565b6200021d816200021684546200015e565b846200019a565b602080601f8311600181146200025557600084156200023c5750858301515b600019600386901b1c1916600185901b17855562000118565b600085815260208120601f198616915b82811015620002865788860151825594840194600190910190840162000265565b5085821015620002a55787850151600019600388901b60f8161c191681555b5050505050600190811b01905550565b6137d580620002c56000396000f3fe6080604052600436106103d95760003560e01c8063a47d4c02116101fd578063dbd0e1b611610118578063e530c400116100ab578063f2aa82181161007a578063f2aa821814610d3a578063f34d4c6314610d5a578063f3f0c21814610de4578063f9c43bdf14610e04578063fbfa4b7f14610e2457600080fd5b8063e530c40014610cb5578063e757223014610cd5578063ee95feaf14610d05578063f0d3a9df14610d2557600080fd5b8063e165af87116100e7578063e165af8714610c10578063e1ecc79414610c30578063e261f1e514610c50578063e4b2611514610c8557600080fd5b8063dbd0e1b614610b83578063dd9d122d14610b98578063dec091ad14610bad578063def936c314610be057600080fd5b8063bed403c711610190578063cee26ed51161015f578063cee26ed514610b03578063d1760e6014610b23578063d713065114610b43578063d7d1bbdb14610b6357600080fd5b8063bed403c714610a83578063c3c5a54714610aa3578063c560b4e514610ac3578063cd392a8314610ae357600080fd5b8063b0a5dcd3116101cc578063b0a5dcd31461099c578063b3c8fe8514610a1b578063b9209e3314610a4d578063ba49a08c14610a6d57600080fd5b8063a47d4c02146108d8578063a4a0f6c014610908578063a6dc41fb14610938578063ab5170741461096857600080fd5b8063601e7c34116102f85780637910867b1161028b578063933836481161025a5780639338364814610826578063941e242614610846578063989376b41461085c5780639ae9711e1461088c5780639dc1bfa9146108a257600080fd5b80637910867b1461078657806383546501146107a65780638965cde1146107d657806389d21354146107f657600080fd5b806367a09c23116102c757806367a09c23146107005780636814800b1461071357806368cfe6ee146107335780636cbf6cf81461076657600080fd5b8063601e7c341461064e578063603daf9a1461067e57806363f17143146106a05780636490c7a8146106d057600080fd5b80632607aafa1161037057806344c9af281161033f57806344c9af28146105be57806348a46bd3146105de5780634daa9dae146105fe5780634e2cba091461062e57600080fd5b80632607aafa1461053c5780632a55feec146105695780633410452a146105895780633f9b250a1461059e57600080fd5b8063170f3909116103ac578063170f3909146104885780631869a38b146104c05780631a07f76e146104f65780631c9afd0f1461052657600080fd5b806307d56ac0146103de57806311ce462c14610421578063155fec721461044357806316d9d66614610473575b600080fd5b3480156103ea57600080fd5b5061040e6103f9366004612e0b565b60009081526020819052604090206005015490565b6040519081526020015b60405180910390f35b34801561042d57600080fd5b5061044161043c366004612ec7565b610e3a565b005b34801561044f57600080fd5b5061046361045e366004612e0b565b610f19565b6040519015158152602001610418565b34801561047f57600080fd5b5060135461040e565b34801561049457600080fd5b506010546104a8906001600160a01b031681565b6040516001600160a01b039091168152602001610418565b3480156104cc57600080fd5b506104a86104db366004612e0b565b6000908152600c60205260409020546001600160a01b031690565b34801561050257600080fd5b50610463610511366004612e0b565b600f6020526000908152604090205460ff1681565b34801561053257600080fd5b5061040e60135481565b34801561054857600080fd5b5061055c610557366004612e0b565b610f3d565b6040516104189190612fe7565b34801561057557600080fd5b50610463610584366004613019565b610fe2565b34801561059557600080fd5b5060175461040e565b3480156105aa57600080fd5b5061055c6105b9366004612e0b565b61100b565b3480156105ca57600080fd5b5061055c6105d9366004612e0b565b61102b565b3480156105ea57600080fd5b506104636105f9366004613019565b61104b565b34801561060a57600080fd5b50610463610619366004612e0b565b600e6020526000908152604090205460ff1681565b34801561063a57600080fd5b50610441610649366004613036565b611097565b34801561065a57600080fd5b50610463610669366004613019565b60056020526000908152604090205460ff1681565b34801561068a57600080fd5b5061069361129d565b6040516104189190613136565b3480156106ac57600080fd5b506104636106bb366004613019565b60086020526000908152604090205460ff1681565b3480156106dc57600080fd5b5061040e6106eb366004612e0b565b60009081526020819052604090206001015490565b61044161070e366004613183565b6112ff565b34801561071f57600080fd5b5061044161072e366004613019565b611351565b34801561073f57600080fd5b5061075361074e366004613019565b6113be565b60405161041897969594939291906131af565b34801561077257600080fd5b50610463610781366004612e0b565b611769565b34801561079257600080fd5b506104636107a1366004612e0b565b611788565b3480156107b257600080fd5b506104636107c1366004612e0b565b600b6020526000908152604090205460ff1681565b3480156107e257600080fd5b506104416107f1366004613019565b6117a7565b34801561080257600080fd5b50610463610811366004612e0b565b600d6020526000908152604090205460ff1681565b34801561083257600080fd5b50610441610841366004612ec7565b61180d565b34801561085257600080fd5b5061040e60145481565b34801561086857600080fd5b50610463610877366004613019565b600a6020526000908152604090205460ff1681565b34801561089857600080fd5b5061040e60155481565b3480156108ae57600080fd5b506104a86108bd366004612e0b565b600c602052600090815260409020546001600160a01b031681565b3480156108e457600080fd5b506104636108f3366004613019565b60066020526000908152604090205460ff1681565b34801561091457600080fd5b5061040e610923366004612e0b565b60009081526020819052604090206006015490565b34801561094457600080fd5b50610463610953366004613019565b60096020526000908152604090205460ff1681565b34801561097457600080fd5b50610988610983366004613019565b6119f0565b604051610418989796959493929190613238565b3480156109a857600080fd5b506109eb6109b7366004612e0b565b600460205260009081526040902080546001820154600283015460039093015491926001600160a01b039182169291169084565b60405161041894939291909384526001600160a01b03928316602085015291166040830152606082015260800190565b348015610a2757600080fd5b50610a3b610a36366004613019565b611d6b565b604051610418969594939291906132d6565b348015610a5957600080fd5b50610463610a68366004613019565b612083565b348015610a7957600080fd5b5061040e60165481565b348015610a8f57600080fd5b50610441610a9e36600461334a565b6120ce565b348015610aaf57600080fd5b50610463610abe366004613019565b61210e565b348015610acf57600080fd5b50610441610ade36600461337a565b612159565b348015610aef57600080fd5b50610463610afe366004612e0b565b61221b565b348015610b0f57600080fd5b506104a8610b1e366004612e0b565b61223a565b348015610b2f57600080fd5b50610441610b3e366004613019565b612264565b348015610b4f57600080fd5b5061055c610b5e366004612e0b565b6122ca565b348015610b6f57600080fd5b50610441610b7e366004612e0b565b6122ea565b348015610b8f57600080fd5b5061069361236b565b348015610ba457600080fd5b5060155461040e565b348015610bb957600080fd5b50610bcd610bc8366004613019565b6123cb565b6040516104189796959493929190613431565b348015610bec57600080fd5b50610c00610bfb366004612e0b565b6126b8565b60405161041894939291906134a9565b348015610c1c57600080fd5b50610463610c2b366004613019565b6127f0565b348015610c3c57600080fd5b50610441610c4b366004613019565b612818565b348015610c5c57600080fd5b50610c70610c6b366004612e0b565b61287e565b604051610418999897969594939291906134e5565b348015610c9157600080fd5b50610463610ca0366004613019565b60076020526000908152604090205460ff1681565b348015610cc157600080fd5b50610441610cd0366004613564565b612ae5565b348015610ce157600080fd5b5061040e610cf0366004612e0b565b60009081526020819052604090206004015490565b348015610d1157600080fd5b50610463610d20366004613019565b612c53565b348015610d3157600080fd5b5060165461040e565b348015610d4657600080fd5b506104a8610d55366004612e0b565b612c7c565b348015610d6657600080fd5b50610db7610d75366004612e0b565b600090815260046020908152604080832060018101546002820154600390920154600d90945291909320546001600160a01b0391821694919093169260ff1690565b604080516001600160a01b0395861681529490931660208501529183015215156060820152608001610418565b348015610df057600080fd5b50610441610dff366004613183565b612c8c565b348015610e1057600080fd5b50610441610e1f366004612e0b565b612dde565b348015610e3057600080fd5b5061040e60175481565b3360009081526006602052604090205460ff168015610e6f5750336000818152600360205260409020546001600160a01b0316145b610e7857600080fd5b336000908152600360205260409020600101610e9487826136b8565b503360009081526003602081905260409091206002810187905501610eb985826136b8565b50336000908152600360205260409020600401610ed684826136b8565b50336000908152600360205260409020600701610ef383826136b8565b50336000908152600360205260409020600501610f1082826136b8565b50505050505050565b6000818152600e602052604081205460ff1615610f3857506001919050565b919050565b6000818152602081905260409020600701805460609190610f5d90613638565b80601f0160208091040260200160405190810160405280929190818152602001828054610f8990613638565b8015610fd65780601f10610fab57610100808354040283529160200191610fd6565b820191906000526020600020905b815481529060010190602001808311610fb957829003601f168201915b50505050509050919050565b6001600160a01b03811660009081526006602052604081205460ff1615610f3857506001919050565b6000818152602081905260409020600801805460609190610f5d90613638565b6000818152602081905260409020600301805460609190610f5d90613638565b6001600160a01b03811660009081526008602052604081205460ff168061108a57506001600160a01b0382166000908152600a602052604090205460ff165b15610f3857506001919050565b3360009081526006602052604090205460ff16156110fc5760405162461bcd60e51b815260206004820152601b60248201527f416c72656164792072656769737465726564206173204275796572000000000060448201526064015b60405180910390fd5b336000908152600660205260408120805460ff19166001179055601680549161112483613778565b909155505060408051610100810182523380825260208083018b81528385018b9052606084018a90526080840189905260a0840188905260c0840187905260e0840186905260009283526003909152929020815181546001600160a01b0319166001600160a01b03909116178155915190919060018201906111a690826136b8565b5060408201516002820155606082015160038201906111c590826136b8565b50608082015160048201906111da90826136b8565b5060a082015160058201906111ef90826136b8565b5060c0820151600682019061120490826136b8565b5060e0820151600782019061121990826136b8565b5050601280546001810182556000919091527fbb8a6a4669ba250d26cd7a459eca9d215f8307e33aebe50379bc5a3617ec34440180546001600160a01b031916339081179091556040519081527f478f5152d8fc568db3f8de9fb402fd9d98a1a7541ecfe434e59cf574fbfc5524915060200160405180910390a150505050505050565b606060128054806020026020016040519081016040528092919081815260200182805480156112f557602002820191906000526020600020905b81546001600160a01b031681526001909101906020018083116112d7575b5050505050905090565b6000818152600f6020526040808220805460ff19166001179055516001600160a01b038416913480156108fc02929091818181858888f1935050505015801561134c573d6000803e3d6000fd5b505050565b61135a336127f0565b61136357600080fd5b6001600160a01b038116600081815260096020908152604091829020805460ff1916600117905590519182527f6a6455914f452787eb3985452aceedc1000fb545e394eb3b370e3d08958e0a5b91015b60405180910390a150565b6001600160a01b0381166000908152600360208190526040822060028101546001820180546060958695869586958695939486949383019260058101926006820192600783019260040190879061141490613638565b80601f016020809104026020016040519081016040528092919081815260200182805461144090613638565b801561148d5780601f106114625761010080835404028352916020019161148d565b820191906000526020600020905b81548152906001019060200180831161147057829003601f168201915b505050505096508580546114a090613638565b80601f01602080910402602001604051908101604052809291908181526020018280546114cc90613638565b80156115195780601f106114ee57610100808354040283529160200191611519565b820191906000526020600020905b8154815290600101906020018083116114fc57829003601f168201915b5050505050955084805461152c90613638565b80601f016020809104026020016040519081016040528092919081815260200182805461155890613638565b80156115a55780601f1061157a576101008083540402835291602001916115a5565b820191906000526020600020905b81548152906001019060200180831161158857829003601f168201915b505050505094508380546115b890613638565b80601f01602080910402602001604051908101604052809291908181526020018280546115e490613638565b80156116315780601f1061160657610100808354040283529160200191611631565b820191906000526020600020905b81548152906001019060200180831161161457829003601f168201915b5050505050935082805461164490613638565b80601f016020809104026020016040519081016040528092919081815260200182805461167090613638565b80156116bd5780601f10611692576101008083540402835291602001916116bd565b820191906000526020600020905b8154815290600101906020018083116116a057829003601f168201915b505050505092508080546116d090613638565b80601f01602080910402602001604051908101604052809291908181526020018280546116fc90613638565b80156117495780601f1061171e57610100808354040283529160200191611749565b820191906000526020600020905b81548152906001019060200180831161172c57829003601f168201915b505050505090509650965096509650965096509650919395979092949650565b6000818152600b602052604081205460ff1615610f3857506001919050565b6000818152600d602052604081205460ff1615610f3857506001919050565b6117b0336127f0565b6117b957600080fd5b6001600160a01b0381166000818152600a6020908152604091829020805460ff1916600117905590519182527faf77f8960cf590e245ec8b6d41c193a5dcacad8986ae4eb57ac9e5be7b6af03191016113b3565b3360009081526005602052604090205460ff161561186d5760405162461bcd60e51b815260206004820152601c60248201527f416c726561647920726567697374657265642061732053656c6c65720000000060448201526064016110f3565b336000908152600560205260408120805460ff19166001179055601580549161189583613778565b90915550506040805160e0810182523380825260208083018a81528385018a9052606084018990526080840188905260a0840187905260c0840186905260009283526002909152929020815181546001600160a01b0319166001600160a01b039091161781559151909190600182019061190f90826136b8565b50604082015160028201556060820151600382019061192e90826136b8565b506080820151600482019061194390826136b8565b5060a0820151600582019061195890826136b8565b5060c0820151600682019061196d90826136b8565b5050601180546001810182556000919091527f31ecc21a745e3968a04e9570e4425bc18fa8019c68028196b546d1669c200c680180546001600160a01b031916339081179091556040519081527f478f5152d8fc568db3f8de9fb402fd9d98a1a7541ecfe434e59cf574fbfc5524915060200160405180910390a1505050505050565b600360205260009081526040902080546001820180546001600160a01b039092169291611a1c90613638565b80601f0160208091040260200160405190810160405280929190818152602001828054611a4890613638565b8015611a955780601f10611a6a57610100808354040283529160200191611a95565b820191906000526020600020905b815481529060010190602001808311611a7857829003601f168201915b505050505090806002015490806003018054611ab090613638565b80601f0160208091040260200160405190810160405280929190818152602001828054611adc90613638565b8015611b295780601f10611afe57610100808354040283529160200191611b29565b820191906000526020600020905b815481529060010190602001808311611b0c57829003601f168201915b505050505090806004018054611b3e90613638565b80601f0160208091040260200160405190810160405280929190818152602001828054611b6a90613638565b8015611bb75780601f10611b8c57610100808354040283529160200191611bb7565b820191906000526020600020905b815481529060010190602001808311611b9a57829003601f168201915b505050505090806005018054611bcc90613638565b80601f0160208091040260200160405190810160405280929190818152602001828054611bf890613638565b8015611c455780601f10611c1a57610100808354040283529160200191611c45565b820191906000526020600020905b815481529060010190602001808311611c2857829003601f168201915b505050505090806006018054611c5a90613638565b80601f0160208091040260200160405190810160405280929190818152602001828054611c8690613638565b8015611cd35780601f10611ca857610100808354040283529160200191611cd3565b820191906000526020600020905b815481529060010190602001808311611cb657829003601f168201915b505050505090806007018054611ce890613638565b80601f0160208091040260200160405190810160405280929190818152602001828054611d1490613638565b8015611d615780601f10611d3657610100808354040283529160200191611d61565b820191906000526020600020905b815481529060010190602001808311611d4457829003601f168201915b5050505050905088565b6001600160a01b03811660009081526002602081905260408220908101546001820180546060949385938493849384939192916003810191600482019160058101916006909101908690611dbe90613638565b80601f0160208091040260200160405190810160405280929190818152602001828054611dea90613638565b8015611e375780601f10611e0c57610100808354040283529160200191611e37565b820191906000526020600020905b815481529060010190602001808311611e1a57829003601f168201915b50505050509550838054611e4a90613638565b80601f0160208091040260200160405190810160405280929190818152602001828054611e7690613638565b8015611ec35780601f10611e9857610100808354040283529160200191611ec3565b820191906000526020600020905b815481529060010190602001808311611ea657829003601f168201915b50505050509350828054611ed690613638565b80601f0160208091040260200160405190810160405280929190818152602001828054611f0290613638565b8015611f4f5780601f10611f2457610100808354040283529160200191611f4f565b820191906000526020600020905b815481529060010190602001808311611f3257829003601f168201915b50505050509250818054611f6290613638565b80601f0160208091040260200160405190810160405280929190818152602001828054611f8e90613638565b8015611fdb5780601f10611fb057610100808354040283529160200191611fdb565b820191906000526020600020905b815481529060010190602001808311611fbe57829003601f168201915b50505050509150808054611fee90613638565b80601f016020809104026020016040519081016040528092919081815260200182805461201a90613638565b80156120675780601f1061203c57610100808354040283529160200191612067565b820191906000526020600020905b81548152906001019060200180831161204a57829003601f168201915b5050505050905095509550955095509550955091939550919395565b6001600160a01b03811660009081526007602052604081205460ff168061108a57506001600160a01b03821660009081526009602052604090205460ff1615610f3857506001919050565b6120d7336127f0565b6120e057600080fd5b6000918252600c602052604090912080546001600160a01b0319166001600160a01b03909216919091179055565b6001600160a01b03811660009081526005602052604081205460ff168061108a57506001600160a01b03821660009081526006602052604090205460ff1615610f3857506001919050565b3360009081526005602052604090205460ff16801561218e5750336000818152600260205260409020546001600160a01b0316145b61219757600080fd5b3360009081526002602052604090206001016121b386826136b8565b503360009081526002602081905260409091209081018590556003016121d984826136b8565b503360009081526002602052604090206004016121f683826136b8565b5033600090815260026020526040902060050161221382826136b8565b505050505050565b6000818152600f602052604081205460ff1615610f3857506001919050565b6011818154811061224a57600080fd5b6000918252602090912001546001600160a01b0316905081565b61226d336127f0565b61227657600080fd5b6001600160a01b038116600081815260076020908152604091829020805460ff1916600117905590519182527f6a6455914f452787eb3985452aceedc1000fb545e394eb3b370e3d08958e0a5b91016113b3565b6000818152602081905260409020600201805460609190610f5d90613638565b6122f333612c53565b801561230e57503360009081526007602052604090205460ff165b6123505760405162461bcd60e51b815260206004820152601360248201527214d95b1b195c881b9bdd081d995c9a599a5959606a1b60448201526064016110f3565b6000908152600d60205260409020805460ff19166001179055565b606060118054806020026020016040519081016040528092919081815260200182805480156112f5576020028201919060005260206000209081546001600160a01b031681526001909101906020018083116112d7575050505050905090565b600260205260009081526040902080546001820180546001600160a01b0390921692916123f790613638565b80601f016020809104026020016040519081016040528092919081815260200182805461242390613638565b80156124705780601f1061244557610100808354040283529160200191612470565b820191906000526020600020905b81548152906001019060200180831161245357829003601f168201915b50505050509080600201549080600301805461248b90613638565b80601f01602080910402602001604051908101604052809291908181526020018280546124b790613638565b80156125045780601f106124d957610100808354040283529160200191612504565b820191906000526020600020905b8154815290600101906020018083116124e757829003601f168201915b50505050509080600401805461251990613638565b80601f016020809104026020016040519081016040528092919081815260200182805461254590613638565b80156125925780601f1061256757610100808354040283529160200191612592565b820191906000526020600020905b81548152906001019060200180831161257557829003601f168201915b5050505050908060050180546125a790613638565b80601f01602080910402602001604051908101604052809291908181526020018280546125d390613638565b80156126205780601f106125f557610100808354040283529160200191612620565b820191906000526020600020905b81548152906001019060200180831161260357829003601f168201915b50505050509080600601805461263590613638565b80601f016020809104026020016040519081016040528092919081815260200182805461266190613638565b80156126ae5780601f10612683576101008083540402835291602001916126ae565b820191906000526020600020905b81548152906001019060200180831161269157829003601f168201915b5050505050905087565b6001602081905260009182526040909120805491810180546126d990613638565b80601f016020809104026020016040519081016040528092919081815260200182805461270590613638565b80156127525780601f1061272757610100808354040283529160200191612752565b820191906000526020600020905b81548152906001019060200180831161273557829003601f168201915b50505050509080600201549080600301805461276d90613638565b80601f016020809104026020016040519081016040528092919081815260200182805461279990613638565b80156127e65780601f106127bb576101008083540402835291602001916127e6565b820191906000526020600020905b8154815290600101906020018083116127c957829003601f168201915b5050505050905084565b6010546000906001600160a01b0380841691160361281057506001919050565b506000919050565b612821336127f0565b61282a57600080fd5b6001600160a01b038116600081815260086020908152604091829020805460ff1916600117905590519182527faf77f8960cf590e245ec8b6d41c193a5dcacad8986ae4eb57ac9e5be7b6af03191016113b3565b600060208190529081526040902080546001820154600283018054929391926128a690613638565b80601f01602080910402602001604051908101604052809291908181526020018280546128d290613638565b801561291f5780601f106128f45761010080835404028352916020019161291f565b820191906000526020600020905b81548152906001019060200180831161290257829003601f168201915b50505050509080600301805461293490613638565b80601f016020809104026020016040519081016040528092919081815260200182805461296090613638565b80156129ad5780601f10612982576101008083540402835291602001916129ad565b820191906000526020600020905b81548152906001019060200180831161299057829003601f168201915b5050505050908060040154908060050154908060060154908060070180546129d490613638565b80601f0160208091040260200160405190810160405280929190818152602001828054612a0090613638565b8015612a4d5780601f10612a2257610100808354040283529160200191612a4d565b820191906000526020600020905b815481529060010190602001808311612a3057829003601f168201915b505050505090806008018054612a6290613638565b80601f0160208091040260200160405190810160405280929190818152602001828054612a8e90613638565b8015612adb5780601f10612ab057610100808354040283529160200191612adb565b820191906000526020600020905b815481529060010190602001808311612abe57829003601f168201915b5050505050905089565b612aee33612c53565b8015612b0957503360009081526007602052604090205460ff165b612b1257600080fd5b60138054906000612b2283613778565b9091555050604080516101208101825260135480825260208083018c81528385018c8152606085018c9052608085018b905260a085018a905260c0850189905260e085018890526101008501879052600093845291839052939091208251815592516001840155519091906002820190612b9c90826136b8565b5060608201516003820190612bb190826136b8565b506080820151600482015560a0820151600582015560c0820151600682015560e08201516007820190612be490826136b8565b506101008201516008820190612bfa90826136b8565b5050601380546000908152600c602052604080822080546001600160a01b03191633179055915491519192507f1683494da6843132b363282b9c61279cdc5f214c099a31557fc4d0eaad2f4d2991a25050505050505050565b6001600160a01b03811660009081526005602052604081205460ff1615610f3857506001919050565b6012818154811061224a57600080fd5b612c9533610fe2565b8015612cb057503360009081526009602052604090205460ff165b612cf15760405162461bcd60e51b8152602060048201526012602482015271109d5e595c881b9bdd081d995c9a599a595960721b60448201526064016110f3565b60178054906000612d0183613778565b909155505060408051608081018252601780548083526001600160a01b03868116602080860182815233878901908152606088018a81526000968752600484528987209851895591516001808a0180549288166001600160a01b0319938416179055915160028a018054919097169116179094555160039096019590955583548352600d8552858320805460ff1990811690915593548352600e85529185902080549093161790915591519182527fc67eb70629da758128cec22f7e36ad0676066ad4df9b66e8ba58a30c1ab4075b910160405180910390a15050565b612de7336127f0565b612df057600080fd5b6000908152600b60205260409020805460ff19166001179055565b600060208284031215612e1d57600080fd5b5035919050565b634e487b7160e01b600052604160045260246000fd5b600082601f830112612e4b57600080fd5b813567ffffffffffffffff80821115612e6657612e66612e24565b604051601f8301601f19908116603f01168101908282118183101715612e8e57612e8e612e24565b81604052838152866020858801011115612ea757600080fd5b836020870160208301376000602085830101528094505050505092915050565b60008060008060008060c08789031215612ee057600080fd5b863567ffffffffffffffff80821115612ef857600080fd5b612f048a838b01612e3a565b9750602089013596506040890135915080821115612f2157600080fd5b612f2d8a838b01612e3a565b95506060890135915080821115612f4357600080fd5b612f4f8a838b01612e3a565b94506080890135915080821115612f6557600080fd5b612f718a838b01612e3a565b935060a0890135915080821115612f8757600080fd5b50612f9489828a01612e3a565b9150509295509295509295565b6000815180845260005b81811015612fc757602081850181015186830182015201612fab565b506000602082860101526020601f19601f83011685010191505092915050565b602081526000612ffa6020830184612fa1565b9392505050565b6001600160a01b038116811461301657600080fd5b50565b60006020828403121561302b57600080fd5b8135612ffa81613001565b600080600080600080600060e0888a03121561305157600080fd5b873567ffffffffffffffff8082111561306957600080fd5b6130758b838c01612e3a565b985060208a0135975060408a013591508082111561309257600080fd5b61309e8b838c01612e3a565b965060608a01359150808211156130b457600080fd5b6130c08b838c01612e3a565b955060808a01359150808211156130d657600080fd5b6130e28b838c01612e3a565b945060a08a01359150808211156130f857600080fd5b6131048b838c01612e3a565b935060c08a013591508082111561311a57600080fd5b506131278a828b01612e3a565b91505092959891949750929550565b6020808252825182820181905260009190848201906040850190845b818110156131775783516001600160a01b031683529284019291840191600101613152565b50909695505050505050565b6000806040838503121561319657600080fd5b82356131a181613001565b946020939093013593505050565b60e0815260006131c260e083018a612fa1565b82810360208401526131d4818a612fa1565b905082810360408401526131e88189612fa1565b905082810360608401526131fc8188612fa1565b905082810360808401526132108187612fa1565b90508460a084015282810360c084015261322a8185612fa1565b9a9950505050505050505050565b6001600160a01b03891681526101006020820181905260009061325d8382018b612fa1565b905088604084015282810360608401526132778189612fa1565b9050828103608084015261328b8188612fa1565b905082810360a084015261329f8187612fa1565b905082810360c08401526132b38186612fa1565b905082810360e08401526132c78185612fa1565b9b9a5050505050505050505050565b60c0815260006132e960c0830189612fa1565b87602084015282810360408401526133018188612fa1565b905082810360608401526133158187612fa1565b905082810360808401526133298186612fa1565b905082810360a084015261333d8185612fa1565b9998505050505050505050565b6000806040838503121561335d57600080fd5b82359150602083013561336f81613001565b809150509250929050565b600080600080600060a0868803121561339257600080fd5b853567ffffffffffffffff808211156133aa57600080fd5b6133b689838a01612e3a565b96506020880135955060408801359150808211156133d357600080fd5b6133df89838a01612e3a565b945060608801359150808211156133f557600080fd5b61340189838a01612e3a565b9350608088013591508082111561341757600080fd5b5061342488828901612e3a565b9150509295509295909350565b6001600160a01b038816815260e06020820181905260009061345590830189612fa1565b876040840152828103606084015261346d8188612fa1565b905082810360808401526134818187612fa1565b905082810360a08401526134958186612fa1565b905082810360c084015261322a8185612fa1565b8481526080602082015260006134c26080830186612fa1565b84604084015282810360608401526134da8185612fa1565b979650505050505050565b60006101208b83528a60208401528060408401526135058184018b612fa1565b90508281036060840152613519818a612fa1565b90508760808401528660a08401528560c084015282810360e084015261353f8186612fa1565b90508281036101008401526135548185612fa1565b9c9b505050505050505050505050565b600080600080600080600080610100898b03121561358157600080fd5b88359750602089013567ffffffffffffffff808211156135a057600080fd5b6135ac8c838d01612e3a565b985060408b01359150808211156135c257600080fd5b6135ce8c838d01612e3a565b975060608b0135965060808b0135955060a08b0135945060c08b01359150808211156135f957600080fd5b6136058c838d01612e3a565b935060e08b013591508082111561361b57600080fd5b506136288b828c01612e3a565b9150509295985092959890939650565b600181811c9082168061364c57607f821691505b60208210810361366c57634e487b7160e01b600052602260045260246000fd5b50919050565b601f82111561134c57600081815260208120601f850160051c810160208610156136995750805b601f850160051c820191505b81811015612213578281556001016136a5565b815167ffffffffffffffff8111156136d2576136d2612e24565b6136e6816136e08454613638565b84613672565b602080601f83116001811461371b57600084156137035750858301515b600019600386901b1c1916600185901b178555612213565b600085815260208120601f198616915b8281101561374a5788860151825594840194600190910190840161372b565b50858210156137685787850151600019600388901b60f8161c191681555b5050505050600190811b01905550565b60006001820161379857634e487b7160e01b600052601160045260246000fd5b506001019056fea26469706673582212202a455c7d1fa962974c53e29156dc8c9fa80fad2dd2bdec1cab2bb768e5ec6e9a64736f6c63430008150033",
  "immutableReferences": {},
  "source": "pragma solidity >= 0.5.0;\r\n\r\ncontract Land {\r\n    struct Landreg {\r\n        uint id;\r\n        uint area;\r\n        string city;\r\n        string state;\r\n        uint landPrice;\r\n        uint propertyPID;\r\n        uint physicalSurveyNumber;\r\n        string ipfsHash;\r\n        string document;\r\n    }\r\n\r\n    struct Buyer{\r\n        address id;\r\n        string name;\r\n        uint age;\r\n        string city;\r\n        string aadharNumber;\r\n        string panNumber;\r\n        string document;\r\n        string email;\r\n    }\r\n\r\n    struct Seller{\r\n        address id;\r\n        string name;\r\n        uint age;\r\n        string aadharNumber;\r\n        string panNumber;\r\n        string landsOwned;\r\n        string document;\r\n    }\r\n\r\n    struct LandInspector {\r\n        uint id;\r\n        string name;\r\n        uint age;\r\n        string designation;\r\n    }\r\n\r\n    struct LandRequest{\r\n        uint reqId;\r\n        address sellerId;\r\n        address buyerId;\r\n        uint landId;\r\n    }\r\n\r\n    mapping(uint => Landreg) public lands;\r\n    mapping(uint => LandInspector) public InspectorMapping;\r\n    mapping(address => Seller) public SellerMapping;\r\n    mapping(address => Buyer) public BuyerMapping;\r\n    mapping(uint => LandRequest) public RequestsMapping;\r\n\r\n    // REMOVED GLOBAL BLOCKER: mapping(address => bool) public RegisteredAddressMapping;\r\n    \r\n    mapping(address => bool) public RegisteredSellerMapping;\r\n    mapping(address => bool) public RegisteredBuyerMapping;\r\n    \r\n    mapping(address => bool) public SellerVerification;\r\n    mapping(address => bool) public SellerRejection;\r\n    mapping(address => bool) public BuyerVerification;\r\n    mapping(address => bool) public BuyerRejection;\r\n    \r\n    mapping(uint => bool) public LandVerification;\r\n    mapping(uint => address) public LandOwner;\r\n    mapping(uint => bool) public RequestStatus;\r\n    mapping(uint => bool) public RequestedLands;\r\n    mapping(uint => bool) public PaymentReceived;\r\n\r\n    address public Land_Inspector;\r\n    address[] public sellers;\r\n    address[] public buyers;\r\n\r\n    uint public landsCount;\r\n    uint public inspectorsCount;\r\n    uint public sellersCount;\r\n    uint public buyersCount;\r\n    uint public requestsCount;\r\n\r\n    event Registration(address _registrationId);\r\n    event AddingLand(uint indexed _landId);\r\n    event Landrequested(address _sellerId);\r\n    event requestApproved(address _buyerId);\r\n    event Verified(address _id);\r\n    event Rejected(address _id);\r\n\r\n    constructor() public {\r\n        // -------------------------------------------------------\r\n        // FIXED: This is now a valid Ethereum Address (Account 0)\r\n        // -------------------------------------------------------\r\n        Land_Inspector = 0x7D476Fe99d0a981714541Cd63B762aF7Dbb10De7; \r\n        \r\n        addLandInspector(\"Inspector 1\", 45, \"Tehsil Manager\");\r\n    }\r\n\r\n    function addLandInspector(string memory _name, uint _age, string memory _designation) private {\r\n        inspectorsCount++;\r\n        InspectorMapping[inspectorsCount] = LandInspector(inspectorsCount, _name, _age, _designation);\r\n    }\r\n\r\n    // --- GETTERS ---\r\n    function getLandsCount() public view returns (uint) {\r\n        return landsCount;\r\n    }\r\n\r\n    function getBuyersCount() public view returns (uint) {\r\n        return buyersCount;\r\n    }\r\n\r\n    function getSellersCount() public view returns (uint) {\r\n        return sellersCount;\r\n    }\r\n\r\n    function getRequestsCount() public view returns (uint) {\r\n        return requestsCount;\r\n    }\r\n\r\n    function getArea(uint i) public view returns (uint) {\r\n        return lands[i].area;\r\n    }\r\n\r\n    function getCity(uint i) public view returns (string memory) {\r\n        return lands[i].city;\r\n    }\r\n\r\n    function getState(uint i) public view returns (string memory) {\r\n        return lands[i].state;\r\n    }\r\n\r\n    function getPrice(uint i) public view returns (uint) {\r\n        return lands[i].landPrice;\r\n    }\r\n\r\n    function getPID(uint i) public view returns (uint) {\r\n        return lands[i].propertyPID;\r\n    }\r\n\r\n    function getSurveyNumber(uint i) public view returns (uint) {\r\n        return lands[i].physicalSurveyNumber;\r\n    }\r\n\r\n    function getImage(uint i) public view returns (string memory) {\r\n        return lands[i].ipfsHash;\r\n    }\r\n\r\n    function getDocument(uint i) public view returns (string memory) {\r\n        return lands[i].document;\r\n    }\r\n\r\n    function getLandOwner(uint id) public view returns (address) {\r\n        return LandOwner[id];\r\n    }\r\n\r\n    // --- VERIFICATION FUNCTIONS ---\r\n    function verifySeller(address _sellerId) public{\r\n        require(isLandInspector(msg.sender));\r\n        SellerVerification[_sellerId] = true;\r\n        emit Verified(_sellerId);\r\n    }\r\n\r\n    function rejectSeller(address _sellerId) public{\r\n        require(isLandInspector(msg.sender));\r\n        SellerRejection[_sellerId] = true;\r\n        emit Rejected(_sellerId);\r\n    }\r\n\r\n    function verifyBuyer(address _buyerId) public{\r\n        require(isLandInspector(msg.sender));\r\n        BuyerVerification[_buyerId] = true;\r\n        emit Verified(_buyerId);\r\n    }\r\n\r\n    function rejectBuyer(address _buyerId) public{\r\n        require(isLandInspector(msg.sender));\r\n        BuyerRejection[_buyerId] = true;\r\n        emit Rejected(_buyerId);\r\n    }\r\n\r\n    function verifyLand(uint _landId) public{\r\n        require(isLandInspector(msg.sender));\r\n        LandVerification[_landId] = true;\r\n    }\r\n\r\n    // --- CHECKER FUNCTIONS ---\r\n    function isLandVerified(uint _id) public view returns (bool) {\r\n        if(LandVerification[_id]){\r\n            return true;\r\n        }\r\n    }\r\n\r\n    function isVerified(address _id) public view returns (bool) {\r\n        if(SellerVerification[_id] || BuyerVerification[_id]){\r\n            return true;\r\n        }\r\n    }\r\n\r\n    function isRejected(address _id) public view returns (bool) {\r\n        if(SellerRejection[_id] || BuyerRejection[_id]){\r\n            return true;\r\n        }\r\n    }\r\n\r\n    function isSeller(address _id) public view returns (bool) {\r\n        if(RegisteredSellerMapping[_id]){\r\n            return true;\r\n        }\r\n    }\r\n\r\n    function isLandInspector(address _id) public view returns (bool) {\r\n        if(Land_Inspector == _id){\r\n            return true;\r\n        }else{\r\n            return false;\r\n        }\r\n    }\r\n\r\n    function isBuyer(address _id) public view returns (bool) {\r\n        if(RegisteredBuyerMapping[_id]){\r\n            return true;\r\n        }\r\n    }\r\n    \r\n    // Helper function to check if address is registered in ANY capacity\r\n    function isRegistered(address _id) public view returns (bool) {\r\n        if(RegisteredSellerMapping[_id] || RegisteredBuyerMapping[_id]){\r\n            return true;\r\n        }\r\n    }\r\n\r\n    // --- CORE LOGIC ---\r\n\r\n    function addLand(uint _area, string memory _city,string memory _state, uint landPrice, uint _propertyPID,uint _surveyNum,string memory _ipfsHash, string memory _document) public {\r\n        // Requirement: Must be a registered Seller AND be Verified by Admin\r\n        require((isSeller(msg.sender)) && (SellerVerification[msg.sender]));\r\n        \r\n        landsCount++;\r\n        lands[landsCount] = Landreg(landsCount, _area, _city, _state, landPrice,_propertyPID, _surveyNum, _ipfsHash, _document);\r\n        LandOwner[landsCount] = msg.sender;\r\n        emit AddingLand(landsCount);\r\n    }\r\n\r\n    function registerSeller(string memory _name, uint _age, string memory _aadharNumber, string memory _panNumber, string memory _landsOwned, string memory _document) public {\r\n        // CHANGED: Only check if already a SELLER. Ignore Buyer status.\r\n        require(!RegisteredSellerMapping[msg.sender], \"Already registered as Seller\");\r\n\r\n        RegisteredSellerMapping[msg.sender] = true ;\r\n        sellersCount++;\r\n        SellerMapping[msg.sender] = Seller(msg.sender, _name, _age, _aadharNumber,_panNumber, _landsOwned, _document);\r\n        sellers.push(msg.sender);\r\n        emit Registration(msg.sender);\r\n    }\r\n\r\n    function updateSeller(string memory _name, uint _age, string memory _aadharNumber, string memory _panNumber, string memory _landsOwned) public {\r\n        require(RegisteredSellerMapping[msg.sender] && (SellerMapping[msg.sender].id == msg.sender));\r\n        SellerMapping[msg.sender].name = _name;\r\n        SellerMapping[msg.sender].age = _age;\r\n        SellerMapping[msg.sender].aadharNumber = _aadharNumber;\r\n        SellerMapping[msg.sender].panNumber = _panNumber;\r\n        SellerMapping[msg.sender].landsOwned = _landsOwned;\r\n    }\r\n\r\n    function getSeller() public view returns( address [] memory ){\r\n        return(sellers);\r\n    }\r\n\r\n    function getSellerDetails(address i) public view returns (string memory, uint, string memory, string memory, string memory, string memory) {\r\n        return (SellerMapping[i].name, SellerMapping[i].age, SellerMapping[i].aadharNumber, SellerMapping[i].panNumber, SellerMapping[i].landsOwned, SellerMapping[i].document);\r\n    }\r\n\r\n    function registerBuyer(string memory _name, uint _age, string memory _city, string memory _aadharNumber, string memory _panNumber, string memory _document, string memory _email) public {\r\n        // CHANGED: Only check if already a BUYER. Ignore Seller status.\r\n        require(!RegisteredBuyerMapping[msg.sender], \"Already registered as Buyer\");\r\n\r\n        RegisteredBuyerMapping[msg.sender] = true ;\r\n        buyersCount++;\r\n        BuyerMapping[msg.sender] = Buyer(msg.sender, _name, _age, _city, _aadharNumber, _panNumber, _document, _email);\r\n        buyers.push(msg.sender);\r\n        emit Registration(msg.sender);\r\n    }\r\n\r\n    function updateBuyer(string memory _name,uint _age, string memory _city,string memory _aadharNumber, string memory _email, string memory _panNumber) public {\r\n        require(RegisteredBuyerMapping[msg.sender] && (BuyerMapping[msg.sender].id == msg.sender));\r\n        BuyerMapping[msg.sender].name = _name;\r\n        BuyerMapping[msg.sender].age = _age;\r\n        BuyerMapping[msg.sender].city = _city;\r\n        BuyerMapping[msg.sender].aadharNumber = _aadharNumber;\r\n        BuyerMapping[msg.sender].email = _email;\r\n        BuyerMapping[msg.sender].panNumber = _panNumber;\r\n    }\r\n\r\n    function getBuyer() public view returns( address [] memory ){\r\n        return(buyers);\r\n    }\r\n\r\n    function getBuyerDetails(address i) public view returns ( string memory,string memory, string memory, string memory, string memory, uint, string memory) {\r\n        return (BuyerMapping[i].name,BuyerMapping[i].city , BuyerMapping[i].panNumber, BuyerMapping[i].document, BuyerMapping[i].email, BuyerMapping[i].age, BuyerMapping[i].aadharNumber);\r\n    }\r\n\r\n    function requestLand(address _sellerId, uint _landId) public{\r\n        // Requirement: Must be a registered Buyer AND Verified\r\n        require(isBuyer(msg.sender) && BuyerVerification[msg.sender], \"Buyer not verified\");\r\n        \r\n        requestsCount++;\r\n        RequestsMapping[requestsCount] = LandRequest(requestsCount, _sellerId, msg.sender, _landId);\r\n        RequestStatus[requestsCount] = false;\r\n        RequestedLands[requestsCount] = true;\r\n        emit Landrequested(_sellerId);\r\n    }\r\n\r\n    function getRequestDetails (uint i) public view returns (address, address, uint, bool) {\r\n        return(RequestsMapping[i].sellerId, RequestsMapping[i].buyerId, RequestsMapping[i].landId, RequestStatus[i]);\r\n    }\r\n\r\n    function isRequested(uint _id) public view returns (bool) {\r\n        if(RequestedLands[_id]){\r\n            return true;\r\n        }\r\n    }\r\n\r\n    function isApproved(uint _id) public view returns (bool) {\r\n        if(RequestStatus[_id]){\r\n            return true;\r\n        }\r\n    }\r\n\r\n    function approveRequest(uint _reqId) public {\r\n        // Requirement: Must be a registered Seller AND Verified\r\n        require((isSeller(msg.sender)) && (SellerVerification[msg.sender]), \"Seller not verified\");\r\n        \r\n        RequestStatus[_reqId] = true;\r\n    }\r\n\r\n    function LandOwnershipTransfer(uint _landId, address _newOwner) public{\r\n        require(isLandInspector(msg.sender));\r\n        LandOwner[_landId] = _newOwner;\r\n    }\r\n\r\n    function isPaid(uint _landId) public view returns (bool) {\r\n        if(PaymentReceived[_landId]){\r\n            return true;\r\n        }\r\n    }\r\n\r\n    function payment(address payable _receiver, uint _landId) public payable {\r\n        PaymentReceived[_landId] = true;\r\n        _receiver.transfer(msg.value);\r\n    }\r\n}",
  "sourcePath": "X:\\Elective_Project\\contracts\\Land.sol",
  "compiler": {
    "name": "solc",
    "version": "0.8.21+commit.d9974bed.Emscripten.clang"
  },
  "schemaVersion": "3.4.16",
  "updatedAt": "2025-11-25T14:12:59.580Z",
  "networkType": "ethereum",
  "devdoc": {
    "kind": "dev",
    "methods": {},
    "version": 1
  },
  "userdoc": {
    "kind": "user",
    "methods": {},
    "version": 1
  }
}