{
  "contractName": "Land",
  "abi": [
    {
      "inputs": [],
      "stateMutability": "nonpayable",
      "type": "constructor"
    },
    {
      "anonymous": false,
      "inputs": [
        {
          "indexed": true,
          "internalType": "uint256",
          "name": "_landId",
          "type": "uint256"
        }
      ],
      "name": "AddingLand",
      "type": "event"
    },
    {
      "anonymous": false,
      "inputs": [
        {
          "indexed": false,
          "internalType": "address",
          "name": "_sellerId",
          "type": "address"
        }
      ],
      "name": "Landrequested",
      "type": "event"
    },
    {
      "anonymous": false,
      "inputs": [
        {
          "indexed": false,
          "internalType": "address",
          "name": "_registrationId",
          "type": "address"
        }
      ],
      "name": "Registration",
      "type": "event"
    },
    {
      "anonymous": false,
      "inputs": [
        {
          "indexed": false,
          "internalType": "address",
          "name": "_id",
          "type": "address"
        }
      ],
      "name": "Rejected",
      "type": "event"
    },
    {
      "anonymous": false,
      "inputs": [
        {
          "indexed": false,
          "internalType": "address",
          "name": "_id",
          "type": "address"
        }
      ],
      "name": "Verified",
      "type": "event"
    },
    {
      "anonymous": false,
      "inputs": [
        {
          "indexed": false,
          "internalType": "address",
          "name": "_buyerId",
          "type": "address"
        }
      ],
      "name": "requestApproved",
      "type": "event"
    },
    {
      "inputs": [
        {
          "internalType": "address",
          "name": "",
          "type": "address"
        }
      ],
      "name": "BuyerMapping",
      "outputs": [
        {
          "internalType": "address",
          "name": "id",
          "type": "address"
        },
        {
          "internalType": "string",
          "name": "name",
          "type": "string"
        },
        {
          "internalType": "uint256",
          "name": "age",
          "type": "uint256"
        },
        {
          "internalType": "string",
          "name": "city",
          "type": "string"
        },
        {
          "internalType": "string",
          "name": "aadharNumber",
          "type": "string"
        },
        {
          "internalType": "string",
          "name": "panNumber",
          "type": "string"
        },
        {
          "internalType": "string",
          "name": "document",
          "type": "string"
        },
        {
          "internalType": "string",
          "name": "email",
          "type": "string"
        }
      ],
      "stateMutability": "view",
      "type": "function",
      "constant": true
    },
    {
      "inputs": [
        {
          "internalType": "address",
          "name": "",
          "type": "address"
        }
      ],
      "name": "BuyerRejection",
      "outputs": [
        {
          "internalType": "bool",
          "name": "",
          "type": "bool"
        }
      ],
      "stateMutability": "view",
      "type": "function",
      "constant": true
    },
    {
      "inputs": [
        {
          "internalType": "address",
          "name": "",
          "type": "address"
        }
      ],
      "name": "BuyerVerification",
      "outputs": [
        {
          "internalType": "bool",
          "name": "",
          "type": "bool"
        }
      ],
      "stateMutability": "view",
      "type": "function",
      "constant": true
    },
    {
      "inputs": [
        {
          "internalType": "uint256",
          "name": "",
          "type": "uint256"
        }
      ],
      "name": "InspectorMapping",
      "outputs": [
        {
          "internalType": "uint256",
          "name": "id",
          "type": "uint256"
        },
        {
          "internalType": "string",
          "name": "name",
          "type": "string"
        },
        {
          "internalType": "uint256",
          "name": "age",
          "type": "uint256"
        },
        {
          "internalType": "string",
          "name": "designation",
          "type": "string"
        }
      ],
      "stateMutability": "view",
      "type": "function",
      "constant": true
    },
    {
      "inputs": [
        {
          "internalType": "uint256",
          "name": "",
          "type": "uint256"
        }
      ],
      "name": "LandOwner",
      "outputs": [
        {
          "internalType": "address",
          "name": "",
          "type": "address"
        }
      ],
      "stateMutability": "view",
      "type": "function",
      "constant": true
    },
    {
      "inputs": [
        {
          "internalType": "uint256",
          "name": "",
          "type": "uint256"
        }
      ],
      "name": "LandVerification",
      "outputs": [
        {
          "internalType": "bool",
          "name": "",
          "type": "bool"
        }
      ],
      "stateMutability": "view",
      "type": "function",
      "constant": true
    },
    {
      "inputs": [],
      "name": "Land_Inspector",
      "outputs": [
        {
          "internalType": "address",
          "name": "",
          "type": "address"
        }
      ],
      "stateMutability": "view",
      "type": "function",
      "constant": true
    },
    {
      "inputs": [
        {
          "internalType": "uint256",
          "name": "",
          "type": "uint256"
        }
      ],
      "name": "PaymentReceived",
      "outputs": [
        {
          "internalType": "bool",
          "name": "",
          "type": "bool"
        }
      ],
      "stateMutability": "view",
      "type": "function",
      "constant": true
    },
    {
      "inputs": [
        {
          "internalType": "address",
          "name": "",
          "type": "address"
        }
      ],
      "name": "RegisteredAddressMapping",
      "outputs": [
        {
          "internalType": "bool",
          "name": "",
          "type": "bool"
        }
      ],
      "stateMutability": "view",
      "type": "function",
      "constant": true
    },
    {
      "inputs": [
        {
          "internalType": "address",
          "name": "",
          "type": "address"
        }
      ],
      "name": "RegisteredBuyerMapping",
      "outputs": [
        {
          "internalType": "bool",
          "name": "",
          "type": "bool"
        }
      ],
      "stateMutability": "view",
      "type": "function",
      "constant": true
    },
    {
      "inputs": [
        {
          "internalType": "address",
          "name": "",
          "type": "address"
        }
      ],
      "name": "RegisteredSellerMapping",
      "outputs": [
        {
          "internalType": "bool",
          "name": "",
          "type": "bool"
        }
      ],
      "stateMutability": "view",
      "type": "function",
      "constant": true
    },
    {
      "inputs": [
        {
          "internalType": "uint256",
          "name": "",
          "type": "uint256"
        }
      ],
      "name": "RequestStatus",
      "outputs": [
        {
          "internalType": "bool",
          "name": "",
          "type": "bool"
        }
      ],
      "stateMutability": "view",
      "type": "function",
      "constant": true
    },
    {
      "inputs": [
        {
          "internalType": "uint256",
          "name": "",
          "type": "uint256"
        }
      ],
      "name": "RequestedLands",
      "outputs": [
        {
          "internalType": "bool",
          "name": "",
          "type": "bool"
        }
      ],
      "stateMutability": "view",
      "type": "function",
      "constant": true
    },
    {
      "inputs": [
        {
          "internalType": "uint256",
          "name": "",
          "type": "uint256"
        }
      ],
      "name": "RequestsMapping",
      "outputs": [
        {
          "internalType": "uint256",
          "name": "reqId",
          "type": "uint256"
        },
        {
          "internalType": "address",
          "name": "sellerId",
          "type": "address"
        },
        {
          "internalType": "address",
          "name": "buyerId",
          "type": "address"
        },
        {
          "internalType": "uint256",
          "name": "landId",
          "type": "uint256"
        }
      ],
      "stateMutability": "view",
      "type": "function",
      "constant": true
    },
    {
      "inputs": [
        {
          "internalType": "address",
          "name": "",
          "type": "address"
        }
      ],
      "name": "SellerMapping",
      "outputs": [
        {
          "internalType": "address",
          "name": "id",
          "type": "address"
        },
        {
          "internalType": "string",
          "name": "name",
          "type": "string"
        },
        {
          "internalType": "uint256",
          "name": "age",
          "type": "uint256"
        },
        {
          "internalType": "string",
          "name": "aadharNumber",
          "type": "string"
        },
        {
          "internalType": "string",
          "name": "panNumber",
          "type": "string"
        },
        {
          "internalType": "string",
          "name": "landsOwned",
          "type": "string"
        },
        {
          "internalType": "string",
          "name": "document",
          "type": "string"
        }
      ],
      "stateMutability": "view",
      "type": "function",
      "constant": true
    },
    {
      "inputs": [
        {
          "internalType": "address",
          "name": "",
          "type": "address"
        }
      ],
      "name": "SellerRejection",
      "outputs": [
        {
          "internalType": "bool",
          "name": "",
          "type": "bool"
        }
      ],
      "stateMutability": "view",
      "type": "function",
      "constant": true
    },
    {
      "inputs": [
        {
          "internalType": "address",
          "name": "",
          "type": "address"
        }
      ],
      "name": "SellerVerification",
      "outputs": [
        {
          "internalType": "bool",
          "name": "",
          "type": "bool"
        }
      ],
      "stateMutability": "view",
      "type": "function",
      "constant": true
    },
    {
      "inputs": [
        {
          "internalType": "uint256",
          "name": "",
          "type": "uint256"
        }
      ],
      "name": "buyers",
      "outputs": [
        {
          "internalType": "address",
          "name": "",
          "type": "address"
        }
      ],
      "stateMutability": "view",
      "type": "function",
      "constant": true
    },
    {
      "inputs": [],
      "name": "buyersCount",
      "outputs": [
        {
          "internalType": "uint256",
          "name": "",
          "type": "uint256"
        }
      ],
      "stateMutability": "view",
      "type": "function",
      "constant": true
    },
    {
      "inputs": [],
      "name": "inspectorsCount",
      "outputs": [
        {
          "internalType": "uint256",
          "name": "",
          "type": "uint256"
        }
      ],
      "stateMutability": "view",
      "type": "function",
      "constant": true
    },
    {
      "inputs": [
        {
          "internalType": "uint256",
          "name": "",
          "type": "uint256"
        }
      ],
      "name": "lands",
      "outputs": [
        {
          "internalType": "uint256",
          "name": "id",
          "type": "uint256"
        },
        {
          "internalType": "uint256",
          "name": "area",
          "type": "uint256"
        },
        {
          "internalType": "string",
          "name": "city",
          "type": "string"
        },
        {
          "internalType": "string",
          "name": "state",
          "type": "string"
        },
        {
          "internalType": "uint256",
          "name": "landPrice",
          "type": "uint256"
        },
        {
          "internalType": "uint256",
          "name": "propertyPID",
          "type": "uint256"
        },
        {
          "internalType": "uint256",
          "name": "physicalSurveyNumber",
          "type": "uint256"
        },
        {
          "internalType": "string",
          "name": "ipfsHash",
          "type": "string"
        },
        {
          "internalType": "string",
          "name": "document",
          "type": "string"
        }
      ],
      "stateMutability": "view",
      "type": "function",
      "constant": true
    },
    {
      "inputs": [],
      "name": "landsCount",
      "outputs": [
        {
          "internalType": "uint256",
          "name": "",
          "type": "uint256"
        }
      ],
      "stateMutability": "view",
      "type": "function",
      "constant": true
    },
    {
      "inputs": [],
      "name": "requestsCount",
      "outputs": [
        {
          "internalType": "uint256",
          "name": "",
          "type": "uint256"
        }
      ],
      "stateMutability": "view",
      "type": "function",
      "constant": true
    },
    {
      "inputs": [
        {
          "internalType": "uint256",
          "name": "",
          "type": "uint256"
        }
      ],
      "name": "sellers",
      "outputs": [
        {
          "internalType": "address",
          "name": "",
          "type": "address"
        }
      ],
      "stateMutability": "view",
      "type": "function",
      "constant": true
    },
    {
      "inputs": [],
      "name": "sellersCount",
      "outputs": [
        {
          "internalType": "uint256",
          "name": "",
          "type": "uint256"
        }
      ],
      "stateMutability": "view",
      "type": "function",
      "constant": true
    },
    {
      "inputs": [],
      "name": "getLandsCount",
      "outputs": [
        {
          "internalType": "uint256",
          "name": "",
          "type": "uint256"
        }
      ],
      "stateMutability": "view",
      "type": "function",
      "constant": true
    },
    {
      "inputs": [],
      "name": "getBuyersCount",
      "outputs": [
        {
          "internalType": "uint256",
          "name": "",
          "type": "uint256"
        }
      ],
      "stateMutability": "view",
      "type": "function",
      "constant": true
    },
    {
      "inputs": [],
      "name": "getSellersCount",
      "outputs": [
        {
          "internalType": "uint256",
          "name": "",
          "type": "uint256"
        }
      ],
      "stateMutability": "view",
      "type": "function",
      "constant": true
    },
    {
      "inputs": [],
      "name": "getRequestsCount",
      "outputs": [
        {
          "internalType": "uint256",
          "name": "",
          "type": "uint256"
        }
      ],
      "stateMutability": "view",
      "type": "function",
      "constant": true
    },
    {
      "inputs": [
        {
          "internalType": "uint256",
          "name": "i",
          "type": "uint256"
        }
      ],
      "name": "getArea",
      "outputs": [
        {
          "internalType": "uint256",
          "name": "",
          "type": "uint256"
        }
      ],
      "stateMutability": "view",
      "type": "function",
      "constant": true
    },
    {
      "inputs": [
        {
          "internalType": "uint256",
          "name": "i",
          "type": "uint256"
        }
      ],
      "name": "getCity",
      "outputs": [
        {
          "internalType": "string",
          "name": "",
          "type": "string"
        }
      ],
      "stateMutability": "view",
      "type": "function",
      "constant": true
    },
    {
      "inputs": [
        {
          "internalType": "uint256",
          "name": "i",
          "type": "uint256"
        }
      ],
      "name": "getState",
      "outputs": [
        {
          "internalType": "string",
          "name": "",
          "type": "string"
        }
      ],
      "stateMutability": "view",
      "type": "function",
      "constant": true
    },
    {
      "inputs": [
        {
          "internalType": "uint256",
          "name": "i",
          "type": "uint256"
        }
      ],
      "name": "getPrice",
      "outputs": [
        {
          "internalType": "uint256",
          "name": "",
          "type": "uint256"
        }
      ],
      "stateMutability": "view",
      "type": "function",
      "constant": true
    },
    {
      "inputs": [
        {
          "internalType": "uint256",
          "name": "i",
          "type": "uint256"
        }
      ],
      "name": "getPID",
      "outputs": [
        {
          "internalType": "uint256",
          "name": "",
          "type": "uint256"
        }
      ],
      "stateMutability": "view",
      "type": "function",
      "constant": true
    },
    {
      "inputs": [
        {
          "internalType": "uint256",
          "name": "i",
          "type": "uint256"
        }
      ],
      "name": "getSurveyNumber",
      "outputs": [
        {
          "internalType": "uint256",
          "name": "",
          "type": "uint256"
        }
      ],
      "stateMutability": "view",
      "type": "function",
      "constant": true
    },
    {
      "inputs": [
        {
          "internalType": "uint256",
          "name": "i",
          "type": "uint256"
        }
      ],
      "name": "getImage",
      "outputs": [
        {
          "internalType": "string",
          "name": "",
          "type": "string"
        }
      ],
      "stateMutability": "view",
      "type": "function",
      "constant": true
    },
    {
      "inputs": [
        {
          "internalType": "uint256",
          "name": "i",
          "type": "uint256"
        }
      ],
      "name": "getDocument",
      "outputs": [
        {
          "internalType": "string",
          "name": "",
          "type": "string"
        }
      ],
      "stateMutability": "view",
      "type": "function",
      "constant": true
    },
    {
      "inputs": [
        {
          "internalType": "uint256",
          "name": "id",
          "type": "uint256"
        }
      ],
      "name": "getLandOwner",
      "outputs": [
        {
          "internalType": "address",
          "name": "",
          "type": "address"
        }
      ],
      "stateMutability": "view",
      "type": "function",
      "constant": true
    },
    {
      "inputs": [
        {
          "internalType": "address",
          "name": "_sellerId",
          "type": "address"
        }
      ],
      "name": "verifySeller",
      "outputs": [],
      "stateMutability": "nonpayable",
      "type": "function"
    },
    {
      "inputs": [
        {
          "internalType": "address",
          "name": "_sellerId",
          "type": "address"
        }
      ],
      "name": "rejectSeller",
      "outputs": [],
      "stateMutability": "nonpayable",
      "type": "function"
    },
    {
      "inputs": [
        {
          "internalType": "address",
          "name": "_buyerId",
          "type": "address"
        }
      ],
      "name": "verifyBuyer",
      "outputs": [],
      "stateMutability": "nonpayable",
      "type": "function"
    },
    {
      "inputs": [
        {
          "internalType": "address",
          "name": "_buyerId",
          "type": "address"
        }
      ],
      "name": "rejectBuyer",
      "outputs": [],
      "stateMutability": "nonpayable",
      "type": "function"
    },
    {
      "inputs": [
        {
          "internalType": "uint256",
          "name": "_landId",
          "type": "uint256"
        }
      ],
      "name": "verifyLand",
      "outputs": [],
      "stateMutability": "nonpayable",
      "type": "function"
    },
    {
      "inputs": [
        {
          "internalType": "uint256",
          "name": "_id",
          "type": "uint256"
        }
      ],
      "name": "isLandVerified",
      "outputs": [
        {
          "internalType": "bool",
          "name": "",
          "type": "bool"
        }
      ],
      "stateMutability": "view",
      "type": "function",
      "constant": true
    },
    {
      "inputs": [
        {
          "internalType": "address",
          "name": "_id",
          "type": "address"
        }
      ],
      "name": "isVerified",
      "outputs": [
        {
          "internalType": "bool",
          "name": "",
          "type": "bool"
        }
      ],
      "stateMutability": "view",
      "type": "function",
      "constant": true
    },
    {
      "inputs": [
        {
          "internalType": "address",
          "name": "_id",
          "type": "address"
        }
      ],
      "name": "isRejected",
      "outputs": [
        {
          "internalType": "bool",
          "name": "",
          "type": "bool"
        }
      ],
      "stateMutability": "view",
      "type": "function",
      "constant": true
    },
    {
      "inputs": [
        {
          "internalType": "address",
          "name": "_id",
          "type": "address"
        }
      ],
      "name": "isSeller",
      "outputs": [
        {
          "internalType": "bool",
          "name": "",
          "type": "bool"
        }
      ],
      "stateMutability": "view",
      "type": "function",
      "constant": true
    },
    {
      "inputs": [
        {
          "internalType": "address",
          "name": "_id",
          "type": "address"
        }
      ],
      "name": "isLandInspector",
      "outputs": [
        {
          "internalType": "bool",
          "name": "",
          "type": "bool"
        }
      ],
      "stateMutability": "view",
      "type": "function",
      "constant": true
    },
    {
      "inputs": [
        {
          "internalType": "address",
          "name": "_id",
          "type": "address"
        }
      ],
      "name": "isBuyer",
      "outputs": [
        {
          "internalType": "bool",
          "name": "",
          "type": "bool"
        }
      ],
      "stateMutability": "view",
      "type": "function",
      "constant": true
    },
    {
      "inputs": [
        {
          "internalType": "address",
          "name": "_id",
          "type": "address"
        }
      ],
      "name": "isRegistered",
      "outputs": [
        {
          "internalType": "bool",
          "name": "",
          "type": "bool"
        }
      ],
      "stateMutability": "view",
      "type": "function",
      "constant": true
    },
    {
      "inputs": [
        {
          "internalType": "uint256",
          "name": "_area",
          "type": "uint256"
        },
        {
          "internalType": "string",
          "name": "_city",
          "type": "string"
        },
        {
          "internalType": "string",
          "name": "_state",
          "type": "string"
        },
        {
          "internalType": "uint256",
          "name": "landPrice",
          "type": "uint256"
        },
        {
          "internalType": "uint256",
          "name": "_propertyPID",
          "type": "uint256"
        },
        {
          "internalType": "uint256",
          "name": "_surveyNum",
          "type": "uint256"
        },
        {
          "internalType": "string",
          "name": "_ipfsHash",
          "type": "string"
        },
        {
          "internalType": "string",
          "name": "_document",
          "type": "string"
        }
      ],
      "name": "addLand",
      "outputs": [],
      "stateMutability": "nonpayable",
      "type": "function"
    },
    {
      "inputs": [
        {
          "internalType": "string",
          "name": "_name",
          "type": "string"
        },
        {
          "internalType": "uint256",
          "name": "_age",
          "type": "uint256"
        },
        {
          "internalType": "string",
          "name": "_aadharNumber",
          "type": "string"
        },
        {
          "internalType": "string",
          "name": "_panNumber",
          "type": "string"
        },
        {
          "internalType": "string",
          "name": "_landsOwned",
          "type": "string"
        },
        {
          "internalType": "string",
          "name": "_document",
          "type": "string"
        }
      ],
      "name": "registerSeller",
      "outputs": [],
      "stateMutability": "nonpayable",
      "type": "function"
    },
    {
      "inputs": [
        {
          "internalType": "string",
          "name": "_name",
          "type": "string"
        },
        {
          "internalType": "uint256",
          "name": "_age",
          "type": "uint256"
        },
        {
          "internalType": "string",
          "name": "_aadharNumber",
          "type": "string"
        },
        {
          "internalType": "string",
          "name": "_panNumber",
          "type": "string"
        },
        {
          "internalType": "string",
          "name": "_landsOwned",
          "type": "string"
        }
      ],
      "name": "updateSeller",
      "outputs": [],
      "stateMutability": "nonpayable",
      "type": "function"
    },
    {
      "inputs": [],
      "name": "getSeller",
      "outputs": [
        {
          "internalType": "address[]",
          "name": "",
          "type": "address[]"
        }
      ],
      "stateMutability": "view",
      "type": "function",
      "constant": true
    },
    {
      "inputs": [
        {
          "internalType": "address",
          "name": "i",
          "type": "address"
        }
      ],
      "name": "getSellerDetails",
      "outputs": [
        {
          "internalType": "string",
          "name": "",
          "type": "string"
        },
        {
          "internalType": "uint256",
          "name": "",
          "type": "uint256"
        },
        {
          "internalType": "string",
          "name": "",
          "type": "string"
        },
        {
          "internalType": "string",
          "name": "",
          "type": "string"
        },
        {
          "internalType": "string",
          "name": "",
          "type": "string"
        },
        {
          "internalType": "string",
          "name": "",
          "type": "string"
        }
      ],
      "stateMutability": "view",
      "type": "function",
      "constant": true
    },
    {
      "inputs": [
        {
          "internalType": "string",
          "name": "_name",
          "type": "string"
        },
        {
          "internalType": "uint256",
          "name": "_age",
          "type": "uint256"
        },
        {
          "internalType": "string",
          "name": "_city",
          "type": "string"
        },
        {
          "internalType": "string",
          "name": "_aadharNumber",
          "type": "string"
        },
        {
          "internalType": "string",
          "name": "_panNumber",
          "type": "string"
        },
        {
          "internalType": "string",
          "name": "_document",
          "type": "string"
        },
        {
          "internalType": "string",
          "name": "_email",
          "type": "string"
        }
      ],
      "name": "registerBuyer",
      "outputs": [],
      "stateMutability": "nonpayable",
      "type": "function"
    },
    {
      "inputs": [
        {
          "internalType": "string",
          "name": "_name",
          "type": "string"
        },
        {
          "internalType": "uint256",
          "name": "_age",
          "type": "uint256"
        },
        {
          "internalType": "string",
          "name": "_city",
          "type": "string"
        },
        {
          "internalType": "string",
          "name": "_aadharNumber",
          "type": "string"
        },
        {
          "internalType": "string",
          "name": "_email",
          "type": "string"
        },
        {
          "internalType": "string",
          "name": "_panNumber",
          "type": "string"
        }
      ],
      "name": "updateBuyer",
      "outputs": [],
      "stateMutability": "nonpayable",
      "type": "function"
    },
    {
      "inputs": [],
      "name": "getBuyer",
      "outputs": [
        {
          "internalType": "address[]",
          "name": "",
          "type": "address[]"
        }
      ],
      "stateMutability": "view",
      "type": "function",
      "constant": true
    },
    {
      "inputs": [
        {
          "internalType": "address",
          "name": "i",
          "type": "address"
        }
      ],
      "name": "getBuyerDetails",
      "outputs": [
        {
          "internalType": "string",
          "name": "",
          "type": "string"
        },
        {
          "internalType": "string",
          "name": "",
          "type": "string"
        },
        {
          "internalType": "string",
          "name": "",
          "type": "string"
        },
        {
          "internalType": "string",
          "name": "",
          "type": "string"
        },
        {
          "internalType": "string",
          "name": "",
          "type": "string"
        },
        {
          "internalType": "uint256",
          "name": "",
          "type": "uint256"
        },
        {
          "internalType": "string",
          "name": "",
          "type": "string"
        }
      ],
      "stateMutability": "view",
      "type": "function",
      "constant": true
    },
    {
      "inputs": [
        {
          "internalType": "address",
          "name": "_sellerId",
          "type": "address"
        },
        {
          "internalType": "uint256",
          "name": "_landId",
          "type": "uint256"
        }
      ],
      "name": "requestLand",
      "outputs": [],
      "stateMutability": "nonpayable",
      "type": "function"
    },
    {
      "inputs": [
        {
          "internalType": "uint256",
          "name": "i",
          "type": "uint256"
        }
      ],
      "name": "getRequestDetails",
      "outputs": [
        {
          "internalType": "address",
          "name": "",
          "type": "address"
        },
        {
          "internalType": "address",
          "name": "",
          "type": "address"
        },
        {
          "internalType": "uint256",
          "name": "",
          "type": "uint256"
        },
        {
          "internalType": "bool",
          "name": "",
          "type": "bool"
        }
      ],
      "stateMutability": "view",
      "type": "function",
      "constant": true
    },
    {
      "inputs": [
        {
          "internalType": "uint256",
          "name": "_id",
          "type": "uint256"
        }
      ],
      "name": "isRequested",
      "outputs": [
        {
          "internalType": "bool",
          "name": "",
          "type": "bool"
        }
      ],
      "stateMutability": "view",
      "type": "function",
      "constant": true
    },
    {
      "inputs": [
        {
          "internalType": "uint256",
          "name": "_id",
          "type": "uint256"
        }
      ],
      "name": "isApproved",
      "outputs": [
        {
          "internalType": "bool",
          "name": "",
          "type": "bool"
        }
      ],
      "stateMutability": "view",
      "type": "function",
      "constant": true
    },
    {
      "inputs": [
        {
          "internalType": "uint256",
          "name": "_reqId",
          "type": "uint256"
        }
      ],
      "name": "approveRequest",
      "outputs": [],
      "stateMutability": "nonpayable",
      "type": "function"
    },
    {
      "inputs": [
        {
          "internalType": "uint256",
          "name": "_landId",
          "type": "uint256"
        },
        {
          "internalType": "address",
          "name": "_newOwner",
          "type": "address"
        }
      ],
      "name": "LandOwnershipTransfer",
      "outputs": [],
      "stateMutability": "nonpayable",
      "type": "function"
    },
    {
      "inputs": [
        {
          "internalType": "uint256",
          "name": "_landId",
          "type": "uint256"
        }
      ],
      "name": "isPaid",
      "outputs": [
        {
          "internalType": "bool",
          "name": "",
          "type": "bool"
        }
      ],
      "stateMutability": "view",
      "type": "function",
      "constant": true
    },
    {
      "inputs": [
        {
          "internalType": "address payable",
          "name": "_receiver",
          "type": "address"
        },
        {
          "internalType": "uint256",
          "name": "_landId",
          "type": "uint256"
        }
      ],
      "name": "payment",
      "outputs": [],
      "stateMutability": "payable",
      "type": "function",
      "payable": true
    }
  ],
  "bytecode": "0x60806040523480156200001157600080fd5b50601180546001600160a01b031916737d476fe99d0a981714541cd63b762af7dbb10de7179055604080518082018252600b81526a496e73706563746f72203160a81b6020808301919091528251808401909352600e83526d2a32b439b4b61026b0b730b3b2b960911b908301526200008d91602d9062000093565b620002b5565b60158054906000620000a58362000120565b90915550506040805160808101825260155480825260208083018781528385018790526060840186905260009283526001918290529390912082518155925191929190820190620000f79082620001e9565b506040820151600282015560608201516003820190620001189082620001e9565b505050505050565b6000600182016200014157634e487b7160e01b600052601160045260246000fd5b5060010190565b634e487b7160e01b600052604160045260246000fd5b600181811c908216806200017357607f821691505b6020821081036200019457634e487b7160e01b600052602260045260246000fd5b50919050565b601f821115620001e457600081815260208120601f850160051c81016020861015620001c35750805b601f850160051c820191505b818110156200011857828155600101620001cf565b505050565b81516001600160401b0381111562000205576200020562000148565b6200021d816200021684546200015e565b846200019a565b602080601f8311600181146200025557600084156200023c5750858301515b600019600386901b1c1916600185901b17855562000118565b600085815260208120601f198616915b82811015620002865788860151825594840194600190910190840162000265565b5085821015620002a55787850151600019600388901b60f8161c191681555b5050505050600190811b01905550565b6136ff80620002c56000396000f3fe6080604052600436106103e45760003560e01c8063a47d4c0211610208578063dd9d122d11610118578063e7572230116100ab578063f34d4c631161007a578063f34d4c6314610d65578063f3f0c21814610def578063f58f85b514610e0f578063f9c43bdf14610e3f578063fbfa4b7f14610e5f57600080fd5b8063e757223014610ce0578063ee95feaf14610d10578063f0d3a9df14610d30578063f2aa821814610d4557600080fd5b8063e1ecc794116100e7578063e1ecc79414610c3b578063e261f1e514610c5b578063e4b2611514610c90578063e530c40014610cc057600080fd5b8063dd9d122d14610ba3578063dec091ad14610bb8578063def936c314610beb578063e165af8714610c1b57600080fd5b8063bed403c71161019b578063cee26ed51161016a578063cee26ed514610b0e578063d1760e6014610b2e578063d713065114610b4e578063d7d1bbdb14610b6e578063dbd0e1b614610b8e57600080fd5b8063bed403c714610a8e578063c3c5a54714610aae578063c560b4e514610ace578063cd392a8314610aee57600080fd5b8063b0a5dcd3116101d7578063b0a5dcd3146109a7578063b3c8fe8514610a26578063b9209e3314610a58578063ba49a08c14610a7857600080fd5b8063a47d4c02146108e3578063a4a0f6c014610913578063a6dc41fb14610943578063ab5170741461097357600080fd5b8063601e7c34116103035780637910867b1161029657806393383648116102655780639338364814610831578063941e242614610851578063989376b4146108675780639ae9711e146108975780639dc1bfa9146108ad57600080fd5b80637910867b1461079157806383546501146107b15780638965cde1146107e157806389d213541461080157600080fd5b806367a09c23116102d257806367a09c231461070b5780636814800b1461071e57806368cfe6ee1461073e5780636cbf6cf81461077157600080fd5b8063601e7c3414610659578063603daf9a1461068957806363f17143146106ab5780636490c7a8146106db57600080fd5b80632607aafa1161037b57806344c9af281161034a57806344c9af28146105c957806348a46bd3146105e95780634daa9dae146106095780634e2cba091461063957600080fd5b80632607aafa146105475780632a55feec146105745780633410452a146105945780633f9b250a146105a957600080fd5b8063170f3909116103b7578063170f3909146104935780631869a38b146104cb5780631a07f76e146105015780631c9afd0f1461053157600080fd5b806307d56ac0146103e957806311ce462c1461042c578063155fec721461044e57806316d9d6661461047e575b600080fd5b3480156103f557600080fd5b50610419610404366004612d35565b60009081526020819052604090206005015490565b6040519081526020015b60405180910390f35b34801561043857600080fd5b5061044c610447366004612df1565b610e75565b005b34801561045a57600080fd5b5061046e610469366004612d35565b610f54565b6040519015158152602001610423565b34801561048a57600080fd5b50601454610419565b34801561049f57600080fd5b506011546104b3906001600160a01b031681565b6040516001600160a01b039091168152602001610423565b3480156104d757600080fd5b506104b36104e6366004612d35565b6000908152600d60205260409020546001600160a01b031690565b34801561050d57600080fd5b5061046e61051c366004612d35565b60106020526000908152604090205460ff1681565b34801561053d57600080fd5b5061041960145481565b34801561055357600080fd5b50610567610562366004612d35565b610f78565b6040516104239190612f11565b34801561058057600080fd5b5061046e61058f366004612f43565b61101d565b3480156105a057600080fd5b50601854610419565b3480156105b557600080fd5b506105676105c4366004612d35565b611046565b3480156105d557600080fd5b506105676105e4366004612d35565b611066565b3480156105f557600080fd5b5061046e610604366004612f43565b611086565b34801561061557600080fd5b5061046e610624366004612d35565b600f6020526000908152604090205460ff1681565b34801561064557600080fd5b5061044c610654366004612f60565b6110d2565b34801561066557600080fd5b5061046e610674366004612f43565b60066020526000908152604090205460ff1681565b34801561069557600080fd5b5061069e6112a7565b6040516104239190613060565b3480156106b757600080fd5b5061046e6106c6366004612f43565b60096020526000908152604090205460ff1681565b3480156106e757600080fd5b506104196106f6366004612d35565b60009081526020819052604090206001015490565b61044c6107193660046130ad565b611309565b34801561072a57600080fd5b5061044c610739366004612f43565b61135b565b34801561074a57600080fd5b5061075e610759366004612f43565b6113c8565b60405161042397969594939291906130d9565b34801561077d57600080fd5b5061046e61078c366004612d35565b611773565b34801561079d57600080fd5b5061046e6107ac366004612d35565b611792565b3480156107bd57600080fd5b5061046e6107cc366004612d35565b600c6020526000908152604090205460ff1681565b3480156107ed57600080fd5b5061044c6107fc366004612f43565b6117b1565b34801561080d57600080fd5b5061046e61081c366004612d35565b600e6020526000908152604090205460ff1681565b34801561083d57600080fd5b5061044c61084c366004612df1565b611817565b34801561085d57600080fd5b5061041960155481565b34801561087357600080fd5b5061046e610882366004612f43565b600b6020526000908152604090205460ff1681565b3480156108a357600080fd5b5061041960165481565b3480156108b957600080fd5b506104b36108c8366004612d35565b600d602052600090815260409020546001600160a01b031681565b3480156108ef57600080fd5b5061046e6108fe366004612f43565b60076020526000908152604090205460ff1681565b34801561091f57600080fd5b5061041961092e366004612d35565b60009081526020819052604090206006015490565b34801561094f57600080fd5b5061046e61095e366004612f43565b600a6020526000908152604090205460ff1681565b34801561097f57600080fd5b5061099361098e366004612f43565b6119ce565b604051610423989796959493929190613162565b3480156109b357600080fd5b506109f66109c2366004612d35565b600460205260009081526040902080546001820154600283015460039093015491926001600160a01b039182169291169084565b60405161042394939291909384526001600160a01b03928316602085015291166040830152606082015260800190565b348015610a3257600080fd5b50610a46610a41366004612f43565b611d49565b60405161042396959493929190613200565b348015610a6457600080fd5b5061046e610a73366004612f43565b612061565b348015610a8457600080fd5b5061041960175481565b348015610a9a57600080fd5b5061044c610aa9366004613274565b6120ac565b348015610aba57600080fd5b5061046e610ac9366004612f43565b6120ec565b348015610ada57600080fd5b5061044c610ae93660046132a4565b612115565b348015610afa57600080fd5b5061046e610b09366004612d35565b6121d7565b348015610b1a57600080fd5b506104b3610b29366004612d35565b6121f6565b348015610b3a57600080fd5b5061044c610b49366004612f43565b612220565b348015610b5a57600080fd5b50610567610b69366004612d35565b612286565b348015610b7a57600080fd5b5061044c610b89366004612d35565b6122a6565b348015610b9a57600080fd5b5061069e6122e3565b348015610baf57600080fd5b50601654610419565b348015610bc457600080fd5b50610bd8610bd3366004612f43565b612343565b604051610423979695949392919061335b565b348015610bf757600080fd5b50610c0b610c06366004612d35565b612630565b60405161042394939291906133d3565b348015610c2757600080fd5b5061046e610c36366004612f43565b612768565b348015610c4757600080fd5b5061044c610c56366004612f43565b612790565b348015610c6757600080fd5b50610c7b610c76366004612d35565b6127f6565b6040516104239998979695949392919061340f565b348015610c9c57600080fd5b5061046e610cab366004612f43565b60086020526000908152604090205460ff1681565b348015610ccc57600080fd5b5061044c610cdb36600461348e565b612a5d565b348015610cec57600080fd5b50610419610cfb366004612d35565b60009081526020819052604090206004015490565b348015610d1c57600080fd5b5061046e610d2b366004612f43565b612bc0565b348015610d3c57600080fd5b50601754610419565b348015610d5157600080fd5b506104b3610d60366004612d35565b612be9565b348015610d7157600080fd5b50610dc2610d80366004612d35565b600090815260046020908152604080832060018101546002820154600390920154600e90945291909320546001600160a01b0391821694919093169260ff1690565b604080516001600160a01b0395861681529490931660208501529183015215156060820152608001610423565b348015610dfb57600080fd5b5061044c610e0a3660046130ad565b612bf9565b348015610e1b57600080fd5b5061046e610e2a366004612f43565b60056020526000908152604090205460ff1681565b348015610e4b57600080fd5b5061044c610e5a366004612d35565b612d08565b348015610e6b57600080fd5b5061041960185481565b3360009081526005602052604090205460ff168015610eaa5750336000818152600360205260409020546001600160a01b0316145b610eb357600080fd5b336000908152600360205260409020600101610ecf87826135e2565b503360009081526003602081905260409091206002810187905501610ef485826135e2565b50336000908152600360205260409020600401610f1184826135e2565b50336000908152600360205260409020600701610f2e83826135e2565b50336000908152600360205260409020600501610f4b82826135e2565b50505050505050565b6000818152600f602052604081205460ff1615610f7357506001919050565b919050565b6000818152602081905260409020600701805460609190610f9890613562565b80601f0160208091040260200160405190810160405280929190818152602001828054610fc490613562565b80156110115780601f10610fe657610100808354040283529160200191611011565b820191906000526020600020905b815481529060010190602001808311610ff457829003601f168201915b50505050509050919050565b6001600160a01b03811660009081526007602052604081205460ff1615610f7357506001919050565b6000818152602081905260409020600801805460609190610f9890613562565b6000818152602081905260409020600301805460609190610f9890613562565b6001600160a01b03811660009081526009602052604081205460ff16806110c557506001600160a01b0382166000908152600b602052604090205460ff165b15610f7357506001919050565b3360009081526005602052604090205460ff16156110ef57600080fd5b3360009081526005602090815260408083208054600160ff19918216811790925560079093529083208054909216179055601780549161112e836136a2565b909155505060408051610100810182523380825260208083018b81528385018b9052606084018a90526080840189905260a0840188905260c0840187905260e0840186905260009283526003909152929020815181546001600160a01b0319166001600160a01b03909116178155915190919060018201906111b090826135e2565b5060408201516002820155606082015160038201906111cf90826135e2565b50608082015160048201906111e490826135e2565b5060a082015160058201906111f990826135e2565b5060c0820151600682019061120e90826135e2565b5060e0820151600782019061122390826135e2565b5050601380546001810182556000919091527f66de8ffda797e3de9c05e8fc57b3bf0ec28a930d40b0d285d93c06501cf6a0900180546001600160a01b031916339081179091556040519081527f478f5152d8fc568db3f8de9fb402fd9d98a1a7541ecfe434e59cf574fbfc5524915060200160405180910390a150505050505050565b606060138054806020026020016040519081016040528092919081815260200182805480156112ff57602002820191906000526020600020905b81546001600160a01b031681526001909101906020018083116112e1575b5050505050905090565b600081815260106020526040808220805460ff19166001179055516001600160a01b038416913480156108fc02929091818181858888f19350505050158015611356573d6000803e3d6000fd5b505050565b61136433612768565b61136d57600080fd5b6001600160a01b0381166000818152600a6020908152604091829020805460ff1916600117905590519182527f6a6455914f452787eb3985452aceedc1000fb545e394eb3b370e3d08958e0a5b91015b60405180910390a150565b6001600160a01b0381166000908152600360208190526040822060028101546001820180546060958695869586958695939486949383019260058101926006820192600783019260040190879061141e90613562565b80601f016020809104026020016040519081016040528092919081815260200182805461144a90613562565b80156114975780601f1061146c57610100808354040283529160200191611497565b820191906000526020600020905b81548152906001019060200180831161147a57829003601f168201915b505050505096508580546114aa90613562565b80601f01602080910402602001604051908101604052809291908181526020018280546114d690613562565b80156115235780601f106114f857610100808354040283529160200191611523565b820191906000526020600020905b81548152906001019060200180831161150657829003601f168201915b5050505050955084805461153690613562565b80601f016020809104026020016040519081016040528092919081815260200182805461156290613562565b80156115af5780601f10611584576101008083540402835291602001916115af565b820191906000526020600020905b81548152906001019060200180831161159257829003601f168201915b505050505094508380546115c290613562565b80601f01602080910402602001604051908101604052809291908181526020018280546115ee90613562565b801561163b5780601f106116105761010080835404028352916020019161163b565b820191906000526020600020905b81548152906001019060200180831161161e57829003601f168201915b5050505050935082805461164e90613562565b80601f016020809104026020016040519081016040528092919081815260200182805461167a90613562565b80156116c75780601f1061169c576101008083540402835291602001916116c7565b820191906000526020600020905b8154815290600101906020018083116116aa57829003601f168201915b505050505092508080546116da90613562565b80601f016020809104026020016040519081016040528092919081815260200182805461170690613562565b80156117535780601f1061172857610100808354040283529160200191611753565b820191906000526020600020905b81548152906001019060200180831161173657829003601f168201915b505050505090509650965096509650965096509650919395979092949650565b6000818152600c602052604081205460ff1615610f7357506001919050565b6000818152600e602052604081205460ff1615610f7357506001919050565b6117ba33612768565b6117c357600080fd5b6001600160a01b0381166000818152600b6020908152604091829020805460ff1916600117905590519182527faf77f8960cf590e245ec8b6d41c193a5dcacad8986ae4eb57ac9e5be7b6af03191016113bd565b3360009081526005602052604090205460ff161561183457600080fd5b3360009081526005602090815260408083208054600160ff199182168117909255600690935290832080549092161790556016805491611873836136a2565b90915550506040805160e0810182523380825260208083018a81528385018a9052606084018990526080840188905260a0840187905260c0840186905260009283526002909152929020815181546001600160a01b0319166001600160a01b03909116178155915190919060018201906118ed90826135e2565b50604082015160028201556060820151600382019061190c90826135e2565b506080820151600482019061192190826135e2565b5060a0820151600582019061193690826135e2565b5060c0820151600682019061194b90826135e2565b5050601280546001810182556000919091527fbb8a6a4669ba250d26cd7a459eca9d215f8307e33aebe50379bc5a3617ec34440180546001600160a01b031916339081179091556040519081527f478f5152d8fc568db3f8de9fb402fd9d98a1a7541ecfe434e59cf574fbfc5524915060200160405180910390a1505050505050565b600360205260009081526040902080546001820180546001600160a01b0390921692916119fa90613562565b80601f0160208091040260200160405190810160405280929190818152602001828054611a2690613562565b8015611a735780601f10611a4857610100808354040283529160200191611a73565b820191906000526020600020905b815481529060010190602001808311611a5657829003601f168201915b505050505090806002015490806003018054611a8e90613562565b80601f0160208091040260200160405190810160405280929190818152602001828054611aba90613562565b8015611b075780601f10611adc57610100808354040283529160200191611b07565b820191906000526020600020905b815481529060010190602001808311611aea57829003601f168201915b505050505090806004018054611b1c90613562565b80601f0160208091040260200160405190810160405280929190818152602001828054611b4890613562565b8015611b955780601f10611b6a57610100808354040283529160200191611b95565b820191906000526020600020905b815481529060010190602001808311611b7857829003601f168201915b505050505090806005018054611baa90613562565b80601f0160208091040260200160405190810160405280929190818152602001828054611bd690613562565b8015611c235780601f10611bf857610100808354040283529160200191611c23565b820191906000526020600020905b815481529060010190602001808311611c0657829003601f168201915b505050505090806006018054611c3890613562565b80601f0160208091040260200160405190810160405280929190818152602001828054611c6490613562565b8015611cb15780601f10611c8657610100808354040283529160200191611cb1565b820191906000526020600020905b815481529060010190602001808311611c9457829003601f168201915b505050505090806007018054611cc690613562565b80601f0160208091040260200160405190810160405280929190818152602001828054611cf290613562565b8015611d3f5780601f10611d1457610100808354040283529160200191611d3f565b820191906000526020600020905b815481529060010190602001808311611d2257829003601f168201915b5050505050905088565b6001600160a01b03811660009081526002602081905260408220908101546001820180546060949385938493849384939192916003810191600482019160058101916006909101908690611d9c90613562565b80601f0160208091040260200160405190810160405280929190818152602001828054611dc890613562565b8015611e155780601f10611dea57610100808354040283529160200191611e15565b820191906000526020600020905b815481529060010190602001808311611df857829003601f168201915b50505050509550838054611e2890613562565b80601f0160208091040260200160405190810160405280929190818152602001828054611e5490613562565b8015611ea15780601f10611e7657610100808354040283529160200191611ea1565b820191906000526020600020905b815481529060010190602001808311611e8457829003601f168201915b50505050509350828054611eb490613562565b80601f0160208091040260200160405190810160405280929190818152602001828054611ee090613562565b8015611f2d5780601f10611f0257610100808354040283529160200191611f2d565b820191906000526020600020905b815481529060010190602001808311611f1057829003601f168201915b50505050509250818054611f4090613562565b80601f0160208091040260200160405190810160405280929190818152602001828054611f6c90613562565b8015611fb95780601f10611f8e57610100808354040283529160200191611fb9565b820191906000526020600020905b815481529060010190602001808311611f9c57829003601f168201915b50505050509150808054611fcc90613562565b80601f0160208091040260200160405190810160405280929190818152602001828054611ff890613562565b80156120455780601f1061201a57610100808354040283529160200191612045565b820191906000526020600020905b81548152906001019060200180831161202857829003601f168201915b5050505050905095509550955095509550955091939550919395565b6001600160a01b03811660009081526008602052604081205460ff16806110c557506001600160a01b0382166000908152600a602052604090205460ff1615610f7357506001919050565b6120b533612768565b6120be57600080fd5b6000918252600d602052604090912080546001600160a01b0319166001600160a01b03909216919091179055565b6001600160a01b03811660009081526005602052604081205460ff1615610f7357506001919050565b3360009081526005602052604090205460ff16801561214a5750336000818152600260205260409020546001600160a01b0316145b61215357600080fd5b33600090815260026020526040902060010161216f86826135e2565b5033600090815260026020819052604090912090810185905560030161219584826135e2565b503360009081526002602052604090206004016121b283826135e2565b503360009081526002602052604090206005016121cf82826135e2565b505050505050565b60008181526010602052604081205460ff1615610f7357506001919050565b6012818154811061220657600080fd5b6000918252602090912001546001600160a01b0316905081565b61222933612768565b61223257600080fd5b6001600160a01b038116600081815260086020908152604091829020805460ff1916600117905590519182527f6a6455914f452787eb3985452aceedc1000fb545e394eb3b370e3d08958e0a5b91016113bd565b6000818152602081905260409020600201805460609190610f9890613562565b6122af33612bc0565b80156122bf57506122bf33612061565b6122c857600080fd5b6000908152600e60205260409020805460ff19166001179055565b606060128054806020026020016040519081016040528092919081815260200182805480156112ff576020028201919060005260206000209081546001600160a01b031681526001909101906020018083116112e1575050505050905090565b600260205260009081526040902080546001820180546001600160a01b03909216929161236f90613562565b80601f016020809104026020016040519081016040528092919081815260200182805461239b90613562565b80156123e85780601f106123bd576101008083540402835291602001916123e8565b820191906000526020600020905b8154815290600101906020018083116123cb57829003601f168201915b50505050509080600201549080600301805461240390613562565b80601f016020809104026020016040519081016040528092919081815260200182805461242f90613562565b801561247c5780601f106124515761010080835404028352916020019161247c565b820191906000526020600020905b81548152906001019060200180831161245f57829003601f168201915b50505050509080600401805461249190613562565b80601f01602080910402602001604051908101604052809291908181526020018280546124bd90613562565b801561250a5780601f106124df5761010080835404028352916020019161250a565b820191906000526020600020905b8154815290600101906020018083116124ed57829003601f168201915b50505050509080600501805461251f90613562565b80601f016020809104026020016040519081016040528092919081815260200182805461254b90613562565b80156125985780601f1061256d57610100808354040283529160200191612598565b820191906000526020600020905b81548152906001019060200180831161257b57829003601f168201915b5050505050908060060180546125ad90613562565b80601f01602080910402602001604051908101604052809291908181526020018280546125d990613562565b80156126265780601f106125fb57610100808354040283529160200191612626565b820191906000526020600020905b81548152906001019060200180831161260957829003601f168201915b5050505050905087565b60016020819052600091825260409091208054918101805461265190613562565b80601f016020809104026020016040519081016040528092919081815260200182805461267d90613562565b80156126ca5780601f1061269f576101008083540402835291602001916126ca565b820191906000526020600020905b8154815290600101906020018083116126ad57829003601f168201915b5050505050908060020154908060030180546126e590613562565b80601f016020809104026020016040519081016040528092919081815260200182805461271190613562565b801561275e5780601f106127335761010080835404028352916020019161275e565b820191906000526020600020905b81548152906001019060200180831161274157829003601f168201915b5050505050905084565b6011546000906001600160a01b0380841691160361278857506001919050565b506000919050565b61279933612768565b6127a257600080fd5b6001600160a01b038116600081815260096020908152604091829020805460ff1916600117905590519182527faf77f8960cf590e245ec8b6d41c193a5dcacad8986ae4eb57ac9e5be7b6af03191016113bd565b6000602081905290815260409020805460018201546002830180549293919261281e90613562565b80601f016020809104026020016040519081016040528092919081815260200182805461284a90613562565b80156128975780601f1061286c57610100808354040283529160200191612897565b820191906000526020600020905b81548152906001019060200180831161287a57829003601f168201915b5050505050908060030180546128ac90613562565b80601f01602080910402602001604051908101604052809291908181526020018280546128d890613562565b80156129255780601f106128fa57610100808354040283529160200191612925565b820191906000526020600020905b81548152906001019060200180831161290857829003601f168201915b50505050509080600401549080600501549080600601549080600701805461294c90613562565b80601f016020809104026020016040519081016040528092919081815260200182805461297890613562565b80156129c55780601f1061299a576101008083540402835291602001916129c5565b820191906000526020600020905b8154815290600101906020018083116129a857829003601f168201915b5050505050908060080180546129da90613562565b80601f0160208091040260200160405190810160405280929190818152602001828054612a0690613562565b8015612a535780601f10612a2857610100808354040283529160200191612a53565b820191906000526020600020905b815481529060010190602001808311612a3657829003601f168201915b5050505050905089565b612a6633612bc0565b8015612a765750612a7633612061565b612a7f57600080fd5b60148054906000612a8f836136a2565b9091555050604080516101208101825260145480825260208083018c81528385018c8152606085018c9052608085018b905260a085018a905260c0850189905260e085018890526101008501879052600093845291839052939091208251815592516001840155519091906002820190612b0990826135e2565b5060608201516003820190612b1e90826135e2565b506080820151600482015560a0820151600582015560c0820151600682015560e08201516007820190612b5190826135e2565b506101008201516008820190612b6790826135e2565b5050601480546000908152600d602052604080822080546001600160a01b03191633179055915491519192507f1683494da6843132b363282b9c61279cdc5f214c099a31557fc4d0eaad2f4d2991a25050505050505050565b6001600160a01b03811660009081526006602052604081205460ff1615610f7357506001919050565b6013818154811061220657600080fd5b612c023361101d565b8015612c125750612c1233612061565b612c1b57600080fd5b60188054906000612c2b836136a2565b909155505060408051608081018252601880548083526001600160a01b03868116602080860182815233878901908152606088018a81526000968752600484528987209851895591516001808a0180549288166001600160a01b0319938416179055915160028a018054919097169116179094555160039096019590955583548352600e8552858320805460ff1990811690915593548352600f85529185902080549093161790915591519182527fc67eb70629da758128cec22f7e36ad0676066ad4df9b66e8ba58a30c1ab4075b910160405180910390a15050565b612d1133612768565b612d1a57600080fd5b6000908152600c60205260409020805460ff19166001179055565b600060208284031215612d4757600080fd5b5035919050565b634e487b7160e01b600052604160045260246000fd5b600082601f830112612d7557600080fd5b813567ffffffffffffffff80821115612d9057612d90612d4e565b604051601f8301601f19908116603f01168101908282118183101715612db857612db8612d4e565b81604052838152866020858801011115612dd157600080fd5b836020870160208301376000602085830101528094505050505092915050565b60008060008060008060c08789031215612e0a57600080fd5b863567ffffffffffffffff80821115612e2257600080fd5b612e2e8a838b01612d64565b9750602089013596506040890135915080821115612e4b57600080fd5b612e578a838b01612d64565b95506060890135915080821115612e6d57600080fd5b612e798a838b01612d64565b94506080890135915080821115612e8f57600080fd5b612e9b8a838b01612d64565b935060a0890135915080821115612eb157600080fd5b50612ebe89828a01612d64565b9150509295509295509295565b6000815180845260005b81811015612ef157602081850181015186830182015201612ed5565b506000602082860101526020601f19601f83011685010191505092915050565b602081526000612f246020830184612ecb565b9392505050565b6001600160a01b0381168114612f4057600080fd5b50565b600060208284031215612f5557600080fd5b8135612f2481612f2b565b600080600080600080600060e0888a031215612f7b57600080fd5b873567ffffffffffffffff80821115612f9357600080fd5b612f9f8b838c01612d64565b985060208a0135975060408a0135915080821115612fbc57600080fd5b612fc88b838c01612d64565b965060608a0135915080821115612fde57600080fd5b612fea8b838c01612d64565b955060808a013591508082111561300057600080fd5b61300c8b838c01612d64565b945060a08a013591508082111561302257600080fd5b61302e8b838c01612d64565b935060c08a013591508082111561304457600080fd5b506130518a828b01612d64565b91505092959891949750929550565b6020808252825182820181905260009190848201906040850190845b818110156130a15783516001600160a01b03168352928401929184019160010161307c565b50909695505050505050565b600080604083850312156130c057600080fd5b82356130cb81612f2b565b946020939093013593505050565b60e0815260006130ec60e083018a612ecb565b82810360208401526130fe818a612ecb565b905082810360408401526131128189612ecb565b905082810360608401526131268188612ecb565b9050828103608084015261313a8187612ecb565b90508460a084015282810360c08401526131548185612ecb565b9a9950505050505050505050565b6001600160a01b0389168152610100602082018190526000906131878382018b612ecb565b905088604084015282810360608401526131a18189612ecb565b905082810360808401526131b58188612ecb565b905082810360a08401526131c98187612ecb565b905082810360c08401526131dd8186612ecb565b905082810360e08401526131f18185612ecb565b9b9a5050505050505050505050565b60c08152600061321360c0830189612ecb565b876020840152828103604084015261322b8188612ecb565b9050828103606084015261323f8187612ecb565b905082810360808401526132538186612ecb565b905082810360a08401526132678185612ecb565b9998505050505050505050565b6000806040838503121561328757600080fd5b82359150602083013561329981612f2b565b809150509250929050565b600080600080600060a086880312156132bc57600080fd5b853567ffffffffffffffff808211156132d457600080fd5b6132e089838a01612d64565b96506020880135955060408801359150808211156132fd57600080fd5b61330989838a01612d64565b9450606088013591508082111561331f57600080fd5b61332b89838a01612d64565b9350608088013591508082111561334157600080fd5b5061334e88828901612d64565b9150509295509295909350565b6001600160a01b038816815260e06020820181905260009061337f90830189612ecb565b87604084015282810360608401526133978188612ecb565b905082810360808401526133ab8187612ecb565b905082810360a08401526133bf8186612ecb565b905082810360c08401526131548185612ecb565b8481526080602082015260006133ec6080830186612ecb565b84604084015282810360608401526134048185612ecb565b979650505050505050565b60006101208b83528a602084015280604084015261342f8184018b612ecb565b90508281036060840152613443818a612ecb565b90508760808401528660a08401528560c084015282810360e08401526134698186612ecb565b905082810361010084015261347e8185612ecb565b9c9b505050505050505050505050565b600080600080600080600080610100898b0312156134ab57600080fd5b88359750602089013567ffffffffffffffff808211156134ca57600080fd5b6134d68c838d01612d64565b985060408b01359150808211156134ec57600080fd5b6134f88c838d01612d64565b975060608b0135965060808b0135955060a08b0135945060c08b013591508082111561352357600080fd5b61352f8c838d01612d64565b935060e08b013591508082111561354557600080fd5b506135528b828c01612d64565b9150509295985092959890939650565b600181811c9082168061357657607f821691505b60208210810361359657634e487b7160e01b600052602260045260246000fd5b50919050565b601f82111561135657600081815260208120601f850160051c810160208610156135c35750805b601f850160051c820191505b818110156121cf578281556001016135cf565b815167ffffffffffffffff8111156135fc576135fc612d4e565b6136108161360a8454613562565b8461359c565b602080601f831160018114613645576000841561362d5750858301515b600019600386901b1c1916600185901b1785556121cf565b600085815260208120601f198616915b8281101561367457888601518255948401946001909101908401613655565b50858210156136925787850151600019600388901b60f8161c191681555b5050505050600190811b01905550565b6000600182016136c257634e487b7160e01b600052601160045260246000fd5b506001019056fea2646970667358221220c37d17fbf760670cef085b548669a36be5298c10c2488d71eadc83a4241cfc2c64736f6c63430008150033",
  "immutableReferences": {},
  "source": "pragma solidity >= 0.5.0;\r\n\r\ncontract Land {\r\n    struct Landreg {\r\n        uint id;\r\n        uint area;\r\n        string city;\r\n        string state;\r\n        uint landPrice;\r\n        uint propertyPID;\r\n        uint physicalSurveyNumber;\r\n        string ipfsHash;\r\n        string document;\r\n    }\r\n\r\n    struct Buyer{\r\n        address id;\r\n        string name;\r\n        uint age;\r\n        string city;\r\n        string aadharNumber;\r\n        string panNumber;\r\n        string document;\r\n        string email;\r\n    }\r\n\r\n    struct Seller{\r\n        address id;\r\n        string name;\r\n        uint age;\r\n        string aadharNumber;\r\n        string panNumber;\r\n        string landsOwned;\r\n        string document;\r\n    }\r\n\r\n    struct LandInspector {\r\n        uint id;\r\n        string name;\r\n        uint age;\r\n        string designation;\r\n    }\r\n\r\n    struct LandRequest{\r\n        uint reqId;\r\n        address sellerId;\r\n        address buyerId;\r\n        uint landId;\r\n    }\r\n\r\n    mapping(uint => Landreg) public lands;\r\n    mapping(uint => LandInspector) public InspectorMapping;\r\n    mapping(address => Seller) public SellerMapping;\r\n    mapping(address => Buyer) public BuyerMapping;\r\n    mapping(uint => LandRequest) public RequestsMapping;\r\n\r\n    mapping(address => bool) public RegisteredAddressMapping;\r\n    mapping(address => bool) public RegisteredSellerMapping;\r\n    mapping(address => bool) public RegisteredBuyerMapping;\r\n    mapping(address => bool) public SellerVerification;\r\n    mapping(address => bool) public SellerRejection;\r\n    mapping(address => bool) public BuyerVerification;\r\n    mapping(address => bool) public BuyerRejection;\r\n    mapping(uint => bool) public LandVerification;\r\n    mapping(uint => address) public LandOwner;\r\n    mapping(uint => bool) public RequestStatus;\r\n    mapping(uint => bool) public RequestedLands;\r\n    mapping(uint => bool) public PaymentReceived;\r\n\r\n    address public Land_Inspector;\r\n    address[] public sellers;\r\n    address[] public buyers;\r\n\r\n    uint public landsCount;\r\n    uint public inspectorsCount;\r\n    uint public sellersCount;\r\n    uint public buyersCount;\r\n    uint public requestsCount;\r\n\r\n    event Registration(address _registrationId);\r\n    event AddingLand(uint indexed _landId);\r\n    event Landrequested(address _sellerId);\r\n    event requestApproved(address _buyerId);\r\n    event Verified(address _id);\r\n    event Rejected(address _id);\r\n\r\n    constructor() public {\r\n        // -------------------------------------------------------\r\n        // FIXED: This is now a valid Ethereum Address (Account 0)\r\n        // -------------------------------------------------------\r\n        Land_Inspector = 0x7D476Fe99d0a981714541Cd63B762aF7Dbb10De7; \r\n        \r\n        addLandInspector(\"Inspector 1\", 45, \"Tehsil Manager\");\r\n    }\r\n\r\n    function addLandInspector(string memory _name, uint _age, string memory _designation) private {\r\n        inspectorsCount++;\r\n        InspectorMapping[inspectorsCount] = LandInspector(inspectorsCount, _name, _age, _designation);\r\n    }\r\n\r\n    function getLandsCount() public view returns (uint) {\r\n        return landsCount;\r\n    }\r\n\r\n    function getBuyersCount() public view returns (uint) {\r\n        return buyersCount;\r\n    }\r\n\r\n    function getSellersCount() public view returns (uint) {\r\n        return sellersCount;\r\n    }\r\n\r\n    function getRequestsCount() public view returns (uint) {\r\n        return requestsCount;\r\n    }\r\n\r\n    function getArea(uint i) public view returns (uint) {\r\n        return lands[i].area;\r\n    }\r\n\r\n    function getCity(uint i) public view returns (string memory) {\r\n        return lands[i].city;\r\n    }\r\n\r\n    function getState(uint i) public view returns (string memory) {\r\n        return lands[i].state;\r\n    }\r\n\r\n    function getPrice(uint i) public view returns (uint) {\r\n        return lands[i].landPrice;\r\n    }\r\n\r\n    function getPID(uint i) public view returns (uint) {\r\n        return lands[i].propertyPID;\r\n    }\r\n\r\n    function getSurveyNumber(uint i) public view returns (uint) {\r\n        return lands[i].physicalSurveyNumber;\r\n    }\r\n\r\n    function getImage(uint i) public view returns (string memory) {\r\n        return lands[i].ipfsHash;\r\n    }\r\n\r\n    function getDocument(uint i) public view returns (string memory) {\r\n        return lands[i].document;\r\n    }\r\n\r\n    function getLandOwner(uint id) public view returns (address) {\r\n        return LandOwner[id];\r\n    }\r\n\r\n    function verifySeller(address _sellerId) public{\r\n        require(isLandInspector(msg.sender));\r\n        SellerVerification[_sellerId] = true;\r\n        emit Verified(_sellerId);\r\n    }\r\n\r\n    function rejectSeller(address _sellerId) public{\r\n        require(isLandInspector(msg.sender));\r\n        SellerRejection[_sellerId] = true;\r\n        emit Rejected(_sellerId);\r\n    }\r\n\r\n    function verifyBuyer(address _buyerId) public{\r\n        require(isLandInspector(msg.sender));\r\n        BuyerVerification[_buyerId] = true;\r\n        emit Verified(_buyerId);\r\n    }\r\n\r\n    function rejectBuyer(address _buyerId) public{\r\n        require(isLandInspector(msg.sender));\r\n        BuyerRejection[_buyerId] = true;\r\n        emit Rejected(_buyerId);\r\n    }\r\n\r\n    function verifyLand(uint _landId) public{\r\n        require(isLandInspector(msg.sender));\r\n        LandVerification[_landId] = true;\r\n    }\r\n\r\n    function isLandVerified(uint _id) public view returns (bool) {\r\n        if(LandVerification[_id]){\r\n            return true;\r\n        }\r\n    }\r\n\r\n    function isVerified(address _id) public view returns (bool) {\r\n        if(SellerVerification[_id] || BuyerVerification[_id]){\r\n            return true;\r\n        }\r\n    }\r\n\r\n    function isRejected(address _id) public view returns (bool) {\r\n        if(SellerRejection[_id] || BuyerRejection[_id]){\r\n            return true;\r\n        }\r\n    }\r\n\r\n    function isSeller(address _id) public view returns (bool) {\r\n        if(RegisteredSellerMapping[_id]){\r\n            return true;\r\n        }\r\n    }\r\n\r\n    function isLandInspector(address _id) public view returns (bool) {\r\n        if(Land_Inspector == _id){\r\n            return true;\r\n        }else{\r\n            return false;\r\n        }\r\n    }\r\n\r\n    function isBuyer(address _id) public view returns (bool) {\r\n        if(RegisteredBuyerMapping[_id]){\r\n            return true;\r\n        }\r\n    }\r\n    function isRegistered(address _id) public view returns (bool) {\r\n        if(RegisteredAddressMapping[_id]){\r\n            return true;\r\n        }\r\n    }\r\n\r\n    function addLand(uint _area, string memory _city,string memory _state, uint landPrice, uint _propertyPID,uint _surveyNum,string memory _ipfsHash, string memory _document) public {\r\n        require((isSeller(msg.sender)) && (isVerified(msg.sender)));\r\n        landsCount++;\r\n        lands[landsCount] = Landreg(landsCount, _area, _city, _state, landPrice,_propertyPID, _surveyNum, _ipfsHash, _document);\r\n        LandOwner[landsCount] = msg.sender;\r\n        emit AddingLand(landsCount);\r\n    }\r\n\r\n    function registerSeller(string memory _name, uint _age, string memory _aadharNumber, string memory _panNumber, string memory _landsOwned, string memory _document) public {\r\n        require(!RegisteredAddressMapping[msg.sender]);\r\n        RegisteredAddressMapping[msg.sender] = true;\r\n        RegisteredSellerMapping[msg.sender] = true ;\r\n        sellersCount++;\r\n        SellerMapping[msg.sender] = Seller(msg.sender, _name, _age, _aadharNumber,_panNumber, _landsOwned, _document);\r\n        sellers.push(msg.sender);\r\n        emit Registration(msg.sender);\r\n    }\r\n\r\n    function updateSeller(string memory _name, uint _age, string memory _aadharNumber, string memory _panNumber, string memory _landsOwned) public {\r\n        require(RegisteredAddressMapping[msg.sender] && (SellerMapping[msg.sender].id == msg.sender));\r\n        SellerMapping[msg.sender].name = _name;\r\n        SellerMapping[msg.sender].age = _age;\r\n        SellerMapping[msg.sender].aadharNumber = _aadharNumber;\r\n        SellerMapping[msg.sender].panNumber = _panNumber;\r\n        SellerMapping[msg.sender].landsOwned = _landsOwned;\r\n    }\r\n\r\n    function getSeller() public view returns( address [] memory ){\r\n        return(sellers);\r\n    }\r\n\r\n    function getSellerDetails(address i) public view returns (string memory, uint, string memory, string memory, string memory, string memory) {\r\n        return (SellerMapping[i].name, SellerMapping[i].age, SellerMapping[i].aadharNumber, SellerMapping[i].panNumber, SellerMapping[i].landsOwned, SellerMapping[i].document);\r\n    }\r\n\r\n    function registerBuyer(string memory _name, uint _age, string memory _city, string memory _aadharNumber, string memory _panNumber, string memory _document, string memory _email) public {\r\n        require(!RegisteredAddressMapping[msg.sender]);\r\n        RegisteredAddressMapping[msg.sender] = true;\r\n        RegisteredBuyerMapping[msg.sender] = true ;\r\n        buyersCount++;\r\n        BuyerMapping[msg.sender] = Buyer(msg.sender, _name, _age, _city, _aadharNumber, _panNumber, _document, _email);\r\n        buyers.push(msg.sender);\r\n        emit Registration(msg.sender);\r\n    }\r\n\r\n    function updateBuyer(string memory _name,uint _age, string memory _city,string memory _aadharNumber, string memory _email, string memory _panNumber) public {\r\n        require(RegisteredAddressMapping[msg.sender] && (BuyerMapping[msg.sender].id == msg.sender));\r\n        BuyerMapping[msg.sender].name = _name;\r\n        BuyerMapping[msg.sender].age = _age;\r\n        BuyerMapping[msg.sender].city = _city;\r\n        BuyerMapping[msg.sender].aadharNumber = _aadharNumber;\r\n        BuyerMapping[msg.sender].email = _email;\r\n        BuyerMapping[msg.sender].panNumber = _panNumber;\r\n    }\r\n\r\n    function getBuyer() public view returns( address [] memory ){\r\n        return(buyers);\r\n    }\r\n\r\n    function getBuyerDetails(address i) public view returns ( string memory,string memory, string memory, string memory, string memory, uint, string memory) {\r\n        return (BuyerMapping[i].name,BuyerMapping[i].city , BuyerMapping[i].panNumber, BuyerMapping[i].document, BuyerMapping[i].email, BuyerMapping[i].age, BuyerMapping[i].aadharNumber);\r\n    }\r\n\r\n    function requestLand(address _sellerId, uint _landId) public{\r\n        require(isBuyer(msg.sender) && isVerified(msg.sender));\r\n        requestsCount++;\r\n        RequestsMapping[requestsCount] = LandRequest(requestsCount, _sellerId, msg.sender, _landId);\r\n        RequestStatus[requestsCount] = false;\r\n        RequestedLands[requestsCount] = true;\r\n        emit Landrequested(_sellerId);\r\n    }\r\n\r\n    function getRequestDetails (uint i) public view returns (address, address, uint, bool) {\r\n        return(RequestsMapping[i].sellerId, RequestsMapping[i].buyerId, RequestsMapping[i].landId, RequestStatus[i]);\r\n    }\r\n\r\n    function isRequested(uint _id) public view returns (bool) {\r\n        if(RequestedLands[_id]){\r\n            return true;\r\n        }\r\n    }\r\n\r\n    function isApproved(uint _id) public view returns (bool) {\r\n        if(RequestStatus[_id]){\r\n            return true;\r\n        }\r\n    }\r\n\r\n    function approveRequest(uint _reqId) public {\r\n        require((isSeller(msg.sender)) && (isVerified(msg.sender)));\r\n        RequestStatus[_reqId] = true;\r\n    }\r\n\r\n    function LandOwnershipTransfer(uint _landId, address _newOwner) public{\r\n        require(isLandInspector(msg.sender));\r\n        LandOwner[_landId] = _newOwner;\r\n    }\r\n\r\n    function isPaid(uint _landId) public view returns (bool) {\r\n        if(PaymentReceived[_landId]){\r\n            return true;\r\n        }\r\n    }\r\n\r\n    function payment(address payable _receiver, uint _landId) public payable {\r\n        PaymentReceived[_landId] = true;\r\n        _receiver.transfer(msg.value);\r\n    }\r\n}",
  "sourcePath": "X:\\Elective_Project\\contracts\\Land.sol",
  "compiler": {
    "name": "solc",
    "version": "0.8.21+commit.d9974bed.Emscripten.clang"
  },
  "schemaVersion": "3.4.16",
  "updatedAt": "2025-11-25T13:13:57.277Z",
  "networkType": "ethereum",
  "devdoc": {
    "kind": "dev",
    "methods": {},
    "version": 1
  },
  "userdoc": {
    "kind": "user",
    "methods": {},
    "version": 1
  }
}